:020000040000FA
:1000000050090020650100007F0100000128000068
:1000100000000000000000000000000000000000E0
:10002000000000000000000000000000830100004C
:1000300000000000000000008501000087010000B2
:10004000112800001B280000252800002F28000090
:1000500089010000890100003928000043280000C0
:1000600089010000890100004D280000890100007D
:100070005728000089010000612800006B2800005B
:1000800075280000890100007F28000089280000F1
:10009000932800009D280000A72800008901000087
:1000A000B128000089010000BB280000C52800001D
:1000B000CF28000089010000D9280000E3280000B3
:1000C00000F002F800F03EF80CA030C80838241800
:1000D0002D18A246671EAB4654465D46AC4201D180
:1000E00000F030F87E460F3E0FCCB6460126334274
:1000F00000D0FB1AA246AB46334318477C6F000082
:100100009C6F0000103A02D378C878C1FAD8520721
:1001100001D330C830C101D504680C6070470000BD
:100120000023002400250026103A01D378C1FBD813
:10013000520700D330C100D50B6070471FB51FBDFB
:1001400010B510BD00F0B4FF1146FFF7F7FF05F042
:100150006DFD00F0CCFF03B4FFF7F2FF03BC03F02A
:10016000B4FD00000C480D4A002100A1814200D9D5
:1001700002440B4802600B4880470B480047FEE7EB
:10018000FEE7FEE7FEE7FEE7FEE700000748084956
:10019000064A084B704700000000002000000000E5
:1001A00008ED00E009370000C10000005007002002
:1001B00050090020500700207047002203098B429D
:1001C0002CD3030A8B4211D300239C464EE00346F6
:1001D0000B433CD4002243088B4231D303098B42AA
:1001E0001CD3030A8B4201D394463FE0C3098B42E0
:1001F00001D3CB01C01A524183098B4201D38B0139
:10020000C01A524143098B4201D34B01C01A5241DB
:1002100003098B4201D30B01C01A5241C3088B4220
:1002200001D3CB00C01A524183088B4201D38B000B
:10023000C01A524143088B4201D34B00C01A5241AD
:10024000411A00D201465241104670475DE0CA0F84
:1002500000D04942031000D34042534000229C4644
:1002600003098B422DD3030A8B4212D3FC2289014E
:1002700012BA030A8B420CD3890192118B4208D324
:10028000890192118B4204D389013AD0921100E086
:100290008909C3098B4201D3CB01C01A524183099A
:1002A0008B4201D38B01C01A524143098B4201D3C7
:1002B0004B01C01A524103098B4201D30B01C01AF2
:1002C0005241C3088B4201D3CB00C01A524183086C
:1002D0008B4201D38B00C01A5241D9D243088B42C2
:1002E00001D34B00C01A5241411A00D20146634665
:1002F00052415B10104601D34042002B00D54942C9
:10030000704763465B1000D3404201B50020C046F1
:10031000C04602BD70477047704700000246C80FD4
:10032000C00781434B0030B54B405B009B0D20D094
:100330001923DB06C91801231B05994220DB03247E
:10034000A40704251346AB400BD3002B04D1EB06C6
:1003500013409B00E34204D40124640700231219D4
:100360005941FF231B0599420BD2C9000143500F8D
:1003700009E0CB0204D501430803024305D0054838
:1003800030BDFF21C905084330BD084607210905D6
:10039000884330BD0000C07FF0B50C46871A9C41F1
:1003A0000D46861A9D4103D2C01BA141D21963415B
:1003B0000D0D1F0DC94EEC1BAE435CD07F057F0DAC
:1003C0000026002F51D02D05AC46A943DD020123A4
:1003D000ED0A1B051D4320231B1B24D41746E740B1
:1003E000381871412F46E740CC199D4028183146F6
:1003F00061410C0D27D161449A4013D50023401C64
:10040000594152000ED14008400001224B005205D4
:10041000D34207D305204007C14201D5B04900E0CF
:10042000B0493046F0BD6B00002A00D001229A1876
:100430001F23203C1B1B01D5002302E0E5402818A8
:1004400071410C0DD7D0012424050919C407CD072B
:1004500040084908E40F28436144002CD5D000240B
:10046000401C61419A40D0D1CDE76A05520DD9D1E7
:10047000C90FC907D5E79C4D4E00002801D00124C3
:1004800000E0002434195F00002A01D0012600E0BA
:100490000026BE19954FAC420CD8AE420AD8B442E1
:1004A00006D001256D05EC42BCD010461946F0BDC2
:1004B0009942FCD000203946F0BDF0B51FB40C467F
:1004C0000F46811A9F412546861A9D4106D2012575
:1004D000ED076F40401ABC4152187B41210D1E0DA3
:1004E0008D1BAC467D4D8D437ED075056D0D7CD04A
:1004F0000D05AE46AC431B031B0B794D52429D418B
:10050000202366469B1B14D31746F7403818002655
:100510000090744160462F460741E41900989D40C1
:100520002818664116D4714671189A4025D50123C2
:1005300020E093182A466A415200002B00D0521C3A
:100540001E23203E9B1B002B61DD3541EE17281832
:100550006641E8D5001876415B1C9A4000D3401CE8
:100560004B05F3181524E34010D3002B52D07146ED
:100570007118D30FC01802D3491C05B0F0BD012378
:10058000DB079A42F9D140084000F6E70122520504
:10059000B21801D1002853D00123CC0ADB029943C1
:1005A000891E002A08D1020C03D0020C0004103965
:1005B00002E00246002020390023550B05D112022B
:1005C0000823550B01D152010D23550C01D1120105
:1005D0001B1DD50C01D192009B1C150D01D15200A1
:1005E0005B1C2025EE1A01E02CE022E00546F540D8
:1005F00015439840CA1AE10769181305C918002A5B
:10060000BBDA032040070818C10FC9070FE0714685
:100610006118B2E7F10740080843711071444A00BD
:100620000CD001235B059A42A7D2C90FC90700204D
:10063000A3E74905490D26D1002001E00028F4D1A7
:1006400000219AE7284D6600002801D0012100E032
:10065000002171185F00002A01D0012600E0002669
:10066000BE19224FA94210D8AE420ED8B14208D0CE
:1006700001256D05E94206D01946A8024140104601
:100680007BE79C4201D0214677E70020394674E79A
:1006900010B50C465C4005D50124E4076340FFF724
:1006A0000CFF10BDFFF778FE10BD30B40C465C4067
:1006B00004D50124E407634030BC6DE630BCFCE6A1
:1006C00070B50124E40761400D465D4002D4FFF798
:1006D00063FE70BD6340FFF7F0FE70BDFF070000D2
:1006E0000000F0FF0000F07F0000E0FF0000F87F56
:1006F000F0B5F94D0C091E092C402E402F468BB049
:10070000A7437DD0B543FCD0002E7AD0002CFCD07E
:100710000D465D40ED0F2543AC1BFF25AD0464196C
:100720000894C502440DC9022143500DDC02044364
:100730000120C00701430443D2020191200C110C97
:1007400000958C46010423468B430A9161460904B7
:10075000E24D8A430991010A7D444919803909789B
:1007600005464D4301266D18F605751B6943C90CF6
:10077000640B891C4C436418B5012C1B250C2E04FA
:10078000B4434C434D43210C691889090591009DE0
:10079000E90701D00121C90704912C460199670896
:1007A000CD072F434C08059DE10B4D432D0C2946E9
:1007B0006646754302950D4645432E46029D7D1BB8
:1007C000B44100950D465D4301942C0C2F040D4659
:1007D0005543AE462D0C3D43029503947546049C4B
:1007E0002D04641B049406D2029C039D641C002605
:1007F00075410395029401AC70CC009F7D1B01E014
:100800003EE162E1B4410904009507910194059924
:10081000A4086143090C0C464443650BE7040C46ED
:1008200066467443A646640B3C43039502947446A3
:10083000049DE4042C1B049406D2029C039D641CBA
:10084000002675410395029401AC70CC009F7D1B7E
:10085000B44101940C465C430095650FE7000C46DB
:100860005443A646640F3C43039502947446049D8A
:10087000E4002C1B049406D2029C039D641C0026F9
:1008800075410395029401AC70CC009F7D1BB4416F
:10089000AE09AF06049DC900AD092F43049DA4060F
:1008A000AD060495079D344369180791059DE10B3A
:1008B0004D432D0C29466646754302950D4645432A
:1008C0002E46029D7D1BB44100950D465D4301946B
:1008D0002C0C2F040D465543AE462D0C3D4302957E
:1008E00003947546049C2D04641B049406D2029C58
:1008F000039D641C002675410395029401AC70CCE5
:10090000009F7D1BB44101948C050694079C890AC5
:10091000611800950791019C0599A4086143090C91
:100920000D464543680BEF040D46644665436C0B6A
:100930003C43049FED047D1BAC4602D20025641CA1
:100940006841009E019D371B85410846584301952B
:100950000C46460FC5005443600F28436546E4002B
:100960002C1B02D20025401C6E41019D3F1AB5414F
:100970002846BD09800628438446A009BF064E02CA
:100980000699A40676180743079D002068410A9936
:10099000079019430020099B00906046FF191343FC
:1009A0004041E20F64003A43A4460446D71A8C4102
:1009B000A04203D90120009020463A46C70F941860
:1009C00040416246D20F2243644664000494009C76
:1009D000BE466400D71AA446044602978C41774667
:1009E000002F01D1A04204D96046401C8446029ADF
:1009F0002046C40FA64694184041049A0546D20FDB
:100A0000224364466400D31A8D417146002901D106
:100A1000A84202D928461A46641C10430122002825
:100A200000D0164361020020079B891904465C41EF
:100A30000223002C02DB491813466441089DCE0AAC
:100A40002D145D194B056705E10A2C050D19089950
:100A50003E43C9076940002B08D0934006D30022CB
:100A6000761C5141002B01D1760876001C4A002DDE
:100A700043DB154241D0AA433FD030460BB0F0BD16
:100A800006180D464D41174C7642AC411AD39518C5
:100A90001C465C41134A6D42A24113D30122520508
:100AA0004C00D4420AD15C00D4420BD04B4002D55A
:100AB00092021143E2E749004908DFE75940C90FB4
:100AC000C90718E000200849D8E7054801420DD1C0
:100AD0000342F7D0F2E700000000FF075C68000067
:100AE0000000F07F0000E0FF0000F87F114859404F
:100AF0000143C01241400020C0E70123089A9B0631
:100B00009A4205DC032252078918C90FC907B5E7C5
:100B1000052252078918074A1143D2125140ADE706
:100B200070B515461C4602460B4628462146FFF77F
:100B3000DFFD70BDFFFFFF7F0346CA02400D10B509
:100B400010430A1504D00124E4072043002A05DBE2
:100B50000A4CA21A04D4D040FF2A00DD002010BDA8
:100B60004A00002B01D0012000E0002010180122D3
:100B70005205D042F2D8C817C04310BD1E04000071
:100B80001F22030C02D10F22000402D0030E03D057
:100B900004E00020014670470002083A030F01D12B
:100BA0000001121F830F01D18000921E002801DB7B
:100BB0004000521E120551184205C012411810463D
:100BC0007047C10FC90700D040420122920711436C
:100BD000D6E701218907D3E7F0B58B4C0F092546ED
:100BE00089B0BD437BD01D092646AE43FAD00E46E0
:100BF0005E402740F60F3E43254071D0240121423C
:100C0000FBD0FF24AD19A4042D1B039501252D0550
:100C1000DB02DB0AC9022B43C90A29431E01090171
:100C2000040F130F050121431701880B8203914321
:100C30002D098C46A90B1E438A039543B30B9A03D7
:100C400096433F09BA0B9403A74302962E467E4370
:100C50000497B6464E19D7190C460196544305978A
:100C60007E43371B7646BF1B3601B646BE0B361990
:100C700000967646BC043719009C01D3641C00948E
:100C80006400002F01D001263443029E049F754367
:100C900066467E430496760034196E00341900943B
:100CA000029C019E1C196643751BAE460694654660
:100CB0004519059C05956C43594375460891691A79
:100CC0000191049E01465143A41B0491611A009CAA
:100CD0000791E10605D061090122114302E072E0AB
:100CE0006EE06109089D00272C0A2D066918049DF5
:100CF0007C412A0A2D066918019D6241AC0DAD02A6
:100D00006D185441079A910D920255196141029A4A
:100D1000644658435443069B059A5A43121A131BC0
:100D20009A0E9B015B187A41010B0005C3185141D3
:100D3000220A200644195A419A4200D2491C012035
:100D40004002814203D315230226F64302E0142316
:100D50000326F6432020C51AA9401746AF40DA40C3
:100D60000A4320460399D8400914731819055118ED
:100D7000039A3843D2075140AC4009D00122944035
:100D800006D30022401C5141002C01D140084000F4
:100D90001E4A934212D3012203989206904207DB27
:100DA0000520400709181A480143C012414004E0D9
:100DB000032040070818C10FC907002009B0F0BD83
:100DC0000020F107FAE705180C464C4111486D4226
:100DD000A04115D394181A465A410E4864429041D6
:100DE0000ED301204A004005824209D35A008242B4
:100DF00006D35940C90F084AC90700201143DDE74F
:100E000000200649DAE700000000FF07FE070000A7
:100E1000FFFFFF7F0000E0FF0000F07F0000F87F91
:100E20000121C9050123411842001B06D3185B0E9E
:100E30000AD0C1100722D206891840075242D14277
:100E400001D5520089187047090208D50146002AC9
:100E500003D0C10FC90700207047104670474202F7
:100E600002D0002002497047072109050143F4E739
:100E70000000F87FF0B5FF252D04C609C209FF2741
:100E800004462E400137CB093E4348402A402B40C0
:100E90000746002A6BD0002B69D0AA4267D0AB422C
:100EA00065D0002800DA32460125ED0529432C43A0
:100EB00009022002090AD21A4B0C7F24E31A434C80
:100EC000000A7C44E35C7D242404121914145B00A2
:100ED000A218884201D3521C00E0400049420C464F
:100EE0005C4324115C43DB016415E318040A5C4392
:100EF000C502200D0C4644436419250A5D432303B3
:100F0000EC0C0D46654300030019EB184C42A3425C
:100F100001D35B18401CD4052018002B07D05B00C0
:100F2000C91804D3401C002901D1400840003F21CA
:100F300089048A4209D3002A08DC1106090F04D06B
:100F4000032149074018C00FC007F0BD012241002E
:100F5000120689187F2252069142F6D205214907CE
:100F6000C84201D59010F0BDFF20C005F0BD002F94
:100F700000DA32461648AA4207D2AB4205D219021D
:100F8000090E17D0F80FC007F0BDFF2563002D062E
:100F9000AB42F9D84900A942F6D8AB4201D1A942E7
:100FA000F2D0A94201D1002101E061004908D00539
:100FB0000843F0BD1102090EFBD0FF200243D0050B
:100FC000F0BD0A460146104654E700007261000079
:100FD0000000C07F10B501469E240002CA15A30779
:100FE000002A02D01843002A04DBA21A002A0CDDD2
:100FF000D04010BD1206120E01D140004008A21AC6
:1010000003D4D04040420028F3DDFF2248001206FE
:10101000904201D9002010BDC817C043584010BDF0
:101020000102C21504D00123DB071943002A0ADBA1
:101030009E239A1A02D40846D0407047FF224100EE
:101040001206914201D900207047C017C043704773
:101050001F22030C02D10F2200041CD0030E01D169
:101060000002083A030F01D10001121F830F01D1C2
:101070008000921E002801DB4000521ED20551184C
:10108000021251181922904004D3491C002801D1A2
:101090004908490008467047C10FC90700D04042BF
:1010A000012292071143D3E701218907D0E7704756
:1010B000754600F023F8AE46050069465346C00861
:1010C000C000854618B020B5FFF760F860BC002767
:1010D0004908B6460026C0C5C0C5C0C5C0C5C0C504
:1010E000C0C5C0C5C0C5403D49008D4670470446D7
:1010F000C046C0462046FFF72EF800000048704763
:10110000EC0600200146002901DA484270470846F3
:10111000FCE7000002480068401C01490860704775
:10112000B800002008B50E480078401C0C49087033
:101130000878C10F091849104900411A07D000204A
:10114000C82302460146009005F006FA06E000209A
:10115000034602460146009005F0FEF908BD000076
:10116000F80000207047000010B50446204601F04A
:10117000D3FB00BFE106C90E012088400349086087
:1011800000BF0321204601F085FC10BD00E100E016
:10119000FFB504461546A0020D4E8319022C02DD50
:1011A000042004B0F0BDA6010A4FF6198F00039881
:1011B000F0515A6D002D03D001208840024304E015
:1011C000012088401646864332465A650020E8E7EB
:1011D000003000402006002070B50646301FC4B223
:1011E000A0025049451888154059C007C00F002873
:1011F0000DD0A0014C490858002803D0A1014A4A4B
:10120000505880470121C943FF2005304151FF203C
:10121000013040598007C00F00280FD0A00142497B
:1012200040184068002804D0A1013F4A8918486846
:1012300080470221C943FF2005304151FF20013082
:1012400040594007C00F00280FD0A0013649401870
:101250008068002804D0A101334A89188868804733
:101260000421C943FF2005304151FF20013040597E
:101270000007C00F00280FD0A0012B494018C068FC
:10128000002804D0A101284A8918C868804708218D
:10129000C943FF2005304151FF200130405940062D
:1012A000C00F00280FD0A0011F49401880690028F6
:1012B00004D0A1011C4A8918886980474021C9438C
:1012C000FF2005304151FF20013040590006C00F7A
:1012D00000280FD0A00114494018C069002804D08C
:1012E000A101114A8918C86980478021C943FF209C
:1012F00005304151FF2001304059C005C00F002882
:101300000ED0A00108494018006A002804D0A101AD
:10131000054A8918086A80470449FF200530415171
:1013200070BD00000030004020060020FFFEFFFFDF
:10133000F8B506460C46B0021D494518022E01DCE0
:10134000002C01D10420F8BD2078052801DD0420FF
:10135000F9E7286D0E218843217849000E221140BB
:1013600008432865286DFF2101318843617809020F
:10137000FF220132114008432865286D70218843FF
:10138000A17809017022114008432865002706E072
:101390000020B101074A8918BA0088507F1C102F1D
:1013A000F6DB3146123148B2FFF7DEFE0020CAE715
:1013B000003000402006002030B50446A0020D4D4C
:1013C0004319022C01DD042030BD002901D11A612E
:1013D0000DE0012901D15A6109E0022901D19A6188
:1013E00005E0032901D1DA6101E00420ECE70020E7
:1013F000EAE700000030004010B502469002044CBD
:101400000319022A01DD042010BD59600020FBE70A
:101410000030004001468802064BC218022901DD57
:1014200004207047106D40084000401C10650020EB
:10143000F7E700000030004001468802054BC21863
:10144000022901DD04207047106D4008400010653E
:101450000020F8E70030004010B502460020002AC6
:1014600004D0012A0BD0022A1DD111E0104B1B68B9
:101470001B0C1B048CB223430D4C236015E00C4B5A
:101480001B6A1B0C1B048CB22343094C23620CE027
:10149000074B40331B681B0C1B048CB22343044CCA
:1014A0004034236001E0012000BF00BF10BD0000F8
:1014B000000C004001460020002904D0012909D079
:1014C000022917D10DE00D4A5269520852000B4B08
:1014D0005A6111E0094A526B52085200074B5A6395
:1014E0000AE0064A4032526952085200034B403328
:1014F0005A6101E0012000BF00BF7047000C0040AE
:1015000010B502460020002A04D0012A0BD0022A7E
:101510001DD111E0104B5B681B0C1B048CB22343E4
:101520000D4C636015E00C4B5B6A1B0C1B048CB20A
:101530002343094C63620CE0074B40335B681B0C90
:101540001B048CB22343044C4034636001E001204F
:1015500000BF00BF10BD0000000C0040014600208D
:10156000002904D001290BD002291DD111E0104A15
:10157000D26801239B029A43D2180D4BDA6015E022
:101580000B4AD26A01239B029A43D218084BDA62B3
:101590000CE0074A4032D26801239B029A43D218DA
:1015A000034B4033DA6001E0012000BF00BF704709
:1015B000000C004001460020002904D0012907D07A
:1015C000022910D109E00A4A1269D007C00F0CE0C5
:1015D000074A126BD007C00F07E0054A4032126974
:1015E000D007C00F01E0002000BF00BF704700001F
:1015F000000C004030B502460020002A04D0012A29
:101600004AD0022A7ED191E0724BDB680124640249
:10161000A3430C78640201256D022C4023436D4CDA
:10162000E3602346DB68A415A3434C7824026D10C5
:101630002C402343674CE3602346DB687024A343BC
:101640008C78240170252C402343624CE3602346B0
:10165000DB680824A343CC78E40008252C4023430E
:101660005C4CE3602346DB680424A3430C79A400AC
:1016700004252C402343574CE3602346DB680224B7
:10168000A3434C79640002252C402343514CE36072
:10169000514C8B6823609AE04E4BDB6A0124640254
:1016A000A3430C78640201256D022C402343494C6E
:1016B000E3622346DB6AA415A3434C7824026D1031
:1016C0002C402343434CE3622346DB6A7024A3434C
:1016D0008C78240170252C4023433E4CE362234642
:1016E000DB6A0824A343CC78E40008252C4023437C
:1016F000384CE3622346DB6A0424A3430C79A4003C
:10170000042500E061E02C402343324CE362234691
:10171000DB6A0224A3434C79640002252C40234356
:101720002C4CE3622D4CCB68236050E0294B4033B6
:10173000DB6801246402A3430C78640201256D0276
:101740002C402343234C4034E3602346DB68A4153C
:10175000A3434C7824026D102C4023431D4C40348D
:10176000E3602346DB687024A3438C782401702552
:101770002C402343174C4034E3602346DB680824A5
:10178000A343CC78E40008252C402343114C40347B
:10179000E3602346DB680424A3430C79A4000425FA
:1017A0002C4023430B4C4034E3602346DB68022487
:1017B000A3434C79640002252C402343054C40345C
:1017C000E360074C0B69236001E0012000BF00BF0C
:1017D00030BD0000000C00407C0000208000002094
:1017E0008400002001460020002904D001290AD0ED
:1017F00002291AD10FE00F4AD26852085200521C37
:101800000C4BDA6013E00B4AD26A52085200521CA9
:10181000084BDA620BE0074A4032D26852085200A5
:10182000521C044B4033DA6001E0012000BF00BFCE
:1018300070470000000C004001460020002904D041
:10184000012909D0022917D10DE00D4AD2685208AA
:1018500052000B4BDA6011E0094AD26A520852007A
:10186000074BDA620AE0064A4032D2685208520058
:10187000034B4033DA6001E0012000BF00BF704736
:10188000000C004008B5002168460170012141703C
:10189000817000F0F1F808BD0248034988600348F0
:1018A000886070475A5A000000200040A5A500003B
:1018B000034800680F21C902884301490860704746
:1018C0000020004070B505460C460026FFF7E4FFF7
:1018D000002C01D0012000E000200446002D34D06F
:1018E000012D0CD0022D3AD12048006804218843F4
:1018F000A1000422114008431C49086033E01C4841
:10190000C06802218843610002221140084318493F
:10191000C8600846C06804218843A1000422114021
:1019200008431349C86011480069000900010F30DD
:101930000E490861084600680221884361000222BE
:1019400011400843094908600DE008480068400854
:101950004000E107C90F08430449086003E0FFF7AE
:10196000A7FF042600BF00BF304670BD0020004026
:10197000000D024001460020002904D0012907D0B3
:1019800002290FD109E0094AD2681205D00F0AE0F6
:10199000064A12695206D00F05E0044A5269D20481
:1019A000D00F00E000BF00BF7047000000200040E3
:1019B0001EB50020002120A31B6802931F4C18CCE9
:1019C000019400931E4B1B689B069A0F002A04D0BB
:1019D000012A23D0022A23D116E0194BDB68032405
:1019E000640223405B0A02ACE05C164B5843164B82
:1019F000984208D1154B5988114BDB685B055B0D8C
:101A00008B4200D112480DE00D4B5B69012464024A
:101A100023405B0A9B006C46E05803E00D4801E060
:101A2000002000BF00BF064B1B68DB055C0F0346B0
:101A3000E34018461EBD000004081018B06F0000F7
:101A40000020004040420F0000366E01000C1000E4
:101A5000408651010048E80110B50024FFF7A8FFB7
:101A60000446044800684005810F2046C8400446EB
:101A7000204610BD0020004010B50446062000F0AE
:101A800087F8207800F05EF9607800F005F8A0781B
:101A900000F038F8002010BD10B50446102C14D00A
:101AA00008DC012C0DD0022C0CD0042C0BD0082CFF
:101AB00021D109E0202C09D0402C08D0802C1AD14B
:101AC00006E000BF00BF00BF00BF00BF00BF00BFF7
:101AD000FFF7E2FE204600F009FFC4B208480068A4
:101AE000FF21C1318843A101FF22C13211400843C7
:101AF0000349086001E0042010BD00BF0020FBE79F
:101B00000020004010B50446012C06D0022C05D060
:101B1000042C04D0082C16D102E000BF00BF00BF87
:101B2000FFF7BAFE204600F0E1FEC4B208480068A4
:101B300003214902884361020322520211400843F3
:101B40000349086001E0042010BD00BF0020FBE74E
:101B50000020004010B502460020002901D00123DA
:101B600000E000231946002907D0084B1B6A012416
:101B700094402343054C236206E0044B1B6A012476
:101B80009440A343014C236210BD0000002000409C
:101B900010B5014600208A1E130002F088F80504E3
:101BA000101C28344000204B1B895A05520D1F4B36
:101BB000DB68DB0ADB0213431C4CE36031E01A4BA9
:101BC000DB885A05520D194BDB68DB0ADB02134335
:101BD000164CE36025E0144B9B885A05520D134BBD
:101BE000DB68DB0ADB021343104CE36019E00E4BA9
:101BF0005B885A05520D0D4BDB68DB0ADB02134391
:101C00000A4CE3600DE0084B1B885A05520D074B48
:101C1000DB68DB0ADB021343044CE36001E00420D1
:101C200000BF00BF10BD0000000C100000200040ED
:101C300001460020002906D001290CD0022915D028
:101C4000032927D11DE0154A526903239B029A43B9
:101C5000124B5A6120E0114A526903239B029A43B6
:101C600001239B02D2180D4B5A6115E00B4A5269B1
:101C700003239B029A430123DB02D218074B5A61CC
:101C80000AE0064A526903239B029A43D218034B87
:101C90005A6101E0042000BF00BF704700200040EF
:101CA00070B504460025FFF7F7FD002C04D0012C89
:101CB00004D0022C0DD100E000BF00BF084800682E
:101CC0003021884321013022114008430449086033
:101CD00003E0FFF7EDFD042500BF00BF284670BDFF
:101CE0000020004001460020032906D004290BD023
:101CF000052911D006291FD116E0114A1269302397
:101D00009A430F4B1A6119E00D4A126930239A4326
:101D100010320B4B1A6111E0094A126930239A43C1
:101D20002032074B1A6109E0054A126930239A43B1
:101D30003032034B1A6101E0042000BF00BF70473E
:101D40000020004070B505462C46224800688006F9
:101D5000860F002C04D0012C03D0022C09D104E002
:101D600009E00620FFF7BEFF05E00320FFF760FF54
:101D700001E0042070BD00BF17481849C862184828
:101D8000C862012C01D0012E07D100BF1348006AA0
:101D900004218843001D1149086201212046FFF7F4
:101DA00091FD00BF2046FFF7E5FD0028FAD0204650
:101DB000FFF776FF00213046FFF784FD012C05D0A8
:101DC0000648006A042188430449086201F094FC33
:101DD0000020CFE7002000405A5A000000000240D7
:101DE000A5A5000010B50446002C01D1042010BDAB
:101DF0002648006A012109068843401823490862E1
:101E00002078002804D0012818D002281FD10AE029
:101E10001E48406B0321890688430121C9064018EA
:101E20001A49486315E01948406B03218906884325
:101E3000012189064018154948630AE01348406BA0
:101E400003218906884340181049486301E00420B3
:101E5000CDE700BF0D48406B0121490688436178FA
:101E60004906012252061140084308494863606848
:101E7000401E074948610321081F00F093FD002020
:101E800003498861012008610020B0E7002000407C
:101E900000E000E010B5044601480068804710BD2E
:101EA000FC000020F8B505460F4616466CB22046E9
:101EB000C206D20E012191400D4A116000BF394681
:101EC00000F034FD012E08D100BFE106C90E01204B
:101ED00088400849086000BF09E000BFE106C90E5C
:101EE0000120884003498031086000BF00BFF8BD71
:101EF00080E200E000E100E000B5002000F0A8F87A
:101F0000012805D1002000F00FF8002000F04CF867
:101F1000012000F09DF8012804D100F005F801200F
:101F200000F042F800BD000001460120002902D067
:101F300001292FD116E0194AD26A120C1204184B4B
:101F4000D218164BDA621A46D26A120C1204154BDA
:101F5000D218124BDA621A46926A520852009A62FA
:101F6000002019E00D4AD26A120C12040C4BD21850
:101F70000A4BDA621A46D26A120C1204094BD218C2
:101F8000064BDA621A46926A02239A43034B9A621C
:101F9000002001E0012000BF00BF704700000240A8
:101FA0005A5A0000A5A5000010B5014601200029DD
:101FB00002D0012942D120E0224AD26A120C120436
:101FC000214BD2181F4BDA621A46D26A120C120445
:101FD0001E4BD2181B4BDA621B6A5B069B0F022456
:101FE000A3435B01602423401A46164B1B6AA3439C
:101FF0001343144C2362002022E0124AD26A120CCE
:102000001204114BD2180F4BDA621A46D26A120C24
:1020100012040E4BD2180B4BDA621B6A5B069B0F45
:102020005B085B005B01602423401A46054B1B6A7A
:10203000A3431343034C2362002001E0012000BFAF
:1020400000BF10BD000002405A5A0000A5A50000C4
:1020500001460020002902D001290AD104E0074AE4
:10206000526AD007C00F06E0044A526A9207D00FA6
:1020700001E0002000BF00BF7047000000000240E8
:1020800010B502460020032901DD042010BD854B58
:10209000DB6A1B0C1B04844C1B19824CE362234635
:1020A000DB6A1B0C1B04814C1B197E4CE36223462C
:1020B0001B685B0A5B0220248C40E405E40D23438B
:1020C000784C23602346DB6A1B0C1B04764C1B19DF
:1020D000744CE3622346DB6A1B0C1B04734C1B1914
:1020E000704CE36223465B681B0A1B0217248C407A
:1020F000E4B223436B4C63602346DB6A1B0C1B0476
:10210000694C1B19674CE3622346DB6A1B0C1B04FA
:10211000664C1B19634CE36223469B681B0A1B0237
:102120001B248C40E4B223435E4CA3602346DB6A4D
:102130001B0C1B045C4C1B195A4CE3622346DB6AE4
:102140001B0C1B04594C1B19564CE3622346DB68DD
:102150009B0C9B04564C8C40A403A40B2343514C72
:10216000E3602346DB6A1B0C1B044F4C1B194D4CD0
:10217000E3622346DB6A1B0C1B044C4C1B19494CC5
:10218000E36223461B695B0D5B054A4C8C40E4020D
:10219000E40A2343434C23612346DB6A1B0C1B04E4
:1021A000414C1B193F4CE3622346DB6A1B0C1B04AA
:1021B0003E4C1B193B4CE36223465B691B0B1B0324
:1021C00018248C402405240D2343364C6361234698
:1021D000DB6A1B0C1B04344C1B19324CE362234694
:1021E000DB6A1B0C1B04314C1B192E4CE36223468B
:1021F0009B691B0B1B03F0248C402405240D2343F7
:10220000284CA3612346DB6A1B0C1B04264C1B19BC
:10221000244CE3622346DB6A1B0C1B04234C1B1972
:10222000204CE3622346DB695B0B5B037D24E40007
:102230008C40E404E40C23431A4CE361032917D1D6
:102240002346DB6A1B0C1B04174C1B19154CE3625D
:102250002346DB6A1B0C1B04144C1B19114CE36254
:1022600023461B6A0424A3431B1D0E4C236215E066
:102270000C4BDB6A1B0C1B040B4C1B19094CE36257
:102280002346DB6A1B0C1B04084C1B19054CE3623C
:1022900023461B6A0424A343024C2362064B1A60A4
:1022A00000BFF3E6000002405A5A0000A5A5000056
:1022B00050460000E0220200FC0000200146002001
:1022C0002C4A914201D9042070472B4AD26A120C41
:1022D00012042A4BD218284BDA621A46D26A120C20
:1022E0001204274BD218244BDA621A46126B120CD6
:1022F0001204244BD218204B1A6300BF1E4A126AE4
:10230000D206D20F002AF9D11B4AD26A120C12044B
:102310001A4BD218184BDA621A46D26A120C1204FF
:10232000174BD218144BDA621A46126A92089200BE
:10233000921C1A6200220A7000BF0F4A126AD2066B
:10234000D20F002AF9D10C4AD26A120C12040B4B9C
:10235000D218094BDA621A46D26A120C1204084BE0
:10236000D218054BDA621A46126B120C12041A6369
:1023700000BFA9E7FF7F0000000002405A5A00009A
:10238000A5A50000FFFF000010B5024600202C4B61
:102390009A4201D9042010BD2A4BDB6A1B0C1B0496
:1023A000294C1B19274CE3622346DB6A1B0C1B04D8
:1023B000264C1B19234CE36223461B6B1B0C1B048E
:1023C000234C1B191F4C236300BF1E4B1B6ADB06EB
:1023D000DB0F002BF9D11B4BDB6A1B0C1B041A4CC7
:1023E0001B19184CE3622346DB6A1B0C1B04174CB9
:1023F0001B19144CE36223461B6A9B089B005B1C61
:102400002362117000BF0F4B1B6ADB06DB0F002B32
:10241000F9D10C4BDB6A1B0C1B040B4C1B19094C30
:10242000E3622346DB6A1B0C1B04084C1B19054C9A
:10243000E36223461B6B1B0C1B04236300BFAAE74C
:10244000FF7F0000000002405A5A0000A5A50000CE
:10245000FFFF000010B5024600202E4B9A4203D821
:10246000D307DB0F002B01D0042010BD2A4BDB6A01
:102470001B0C1B04294C1B19274CE3622346DB6A07
:102480001B0C1B04264C1B19234CE36223461B6BBD
:102490001B0C1B04234C1B191F4C236300BF1E4B3A
:1024A0001B6ADB06DB0F002BF9D11B4BDB6A1B0C15
:1024B0001B041A4C1B19184CE3622346DB6A1B0CE5
:1024C0001B04174C1B19144CE36223461B6A9B0820
:1024D0009B005B1C2362118000BF0F4B1B6ADB0655
:1024E000DB0F002BF9D10C4BDB6A1B0C1B040B4CD4
:1024F0001B19094CE3622346DB6A1B0C1B04084CC6
:102500001B19054CE36223461B6B1B0C1B04236346
:1025100000BFAAE7FF7F0000000002405A5A0000F7
:10252000A5A50000FFFF000001460878704701469E
:102530000888704710B501221146002000F030F8DD
:1025400001220221002000F02BF801220421104674
:1025500000F026F801220521104600F021F80122A2
:102560000321022000F01CF801220721022000F0C4
:1025700017F801221146032000F012F8012204216D
:10258000032000F00DF810BD02469001034BC01867
:102590004068C840C007C00F70470000000D0240EF
:1025A00070B504460D4616462948006A0121090700
:1025B000884340182649086200222946204600F038
:1025C000FFF80021A001234A8018001FAA008150B3
:1025D000002E0DD0A0011F49FC31401800680121D8
:1025E000A9400843A1011B4AFC32891808600CE08D
:1025F000A0011849FC31401800680121A940884316
:10260000A101144AFC3289180860A0011149FC316B
:102610004018006A0121A9408843A1010D4AFC32FB
:1026200089180862A00111464018406A0121A9409A
:102630008843A10189184862A00111464018C16A67
:102640000120A8408143A0018018C162002070BD14
:1026500000200040040C0240F0B504460D4616462A
:102660001F465548006A012109078843401852490E
:10267000086200222946204600F0A2F80021A001AD
:102680004E4A8018001FAA008150002E0DD0A001D4
:102690004A49FC31401800680121A9400843A101C2
:1026A000464AFC32891808600CE0A0014349FC311D
:1026B000401800680121A9408843A1013F4AFC322B
:1026C00089180860079800280DD0A0013B49FC310B
:1026D0004018C0690121A9400843A101374AFC32D2
:1026E0008918C8610CE0A0013449FC314018C06968
:1026F0000121A9408843A101304AFC328918C861F0
:10270000002F0DD0A0012D49FC314018006A012195
:10271000A9400843A101294AFC32891808620CE04B
:10272000A0012649FC314018006A0121A9408843D4
:10273000A101224AFC3289180862059800280DD0B0
:10274000A0011E49FC314018406A0121A9400843FC
:10275000A1011A4AFC32891848620CE0A00117490D
:10276000FC314018406A0121A9408843A101134A65
:10277000FC3289184862069800280DD0A0010F4944
:10278000FC314018C06A0121A9400843A1010B4A4D
:10279000FC328918C8620CE0A0010849FC314018DD
:1027A000C06A0121A9408843A101044AFC3289186A
:1027B000C8620020F0BD000000200040040C024070
:1027C00030B50346002A0BD098010C4C0019C068A4
:1027D00001248C4020439C01084D6419E0600AE00C
:1027E0009801064C0019C06801248C40A0439C014C
:1027F000024D6419E060002030BD0000000D024071
:1028000008B50020009000BF00980028FCD008BD4B
:1028100010B50020C046C04610BD10B50120C0460E
:10282000C04610BD10B50220C046C04610BD10B550
:102830000320C046C04610BD10B5002001F02AF9A3
:1028400010BD10B5012001F025F910BD10B5002014
:10285000C046C04610BD10B50020C046C04610BDE1
:1028600010B5002000F0B4FF10BD10B5012000F03D
:10287000AFFF10BD10B5022000F0AAFF10BD10B5CB
:102880000420FEF7A9FC10BD10B50520FEF7A4FC3E
:1028900010BD10B50620FEF79FFC10BD10B500203E
:1028A00000F0B2FB10BD10B50020C046C04610BD00
:1028B00010B50020C046C04610BD10B50020C0466F
:1028C000C04610BD10B50120C046C04610BD10B5B1
:1028D0000020C046C04610BD10B50020FFF7DAFA50
:1028E00010BD10B50020C046C04610BD01460022F4
:1028F000002900D1704701E0521C49080129FBD88A
:102900001046F7E7C206D20E01219140014A11603C
:102910007047000080E200E0C206D20E0121914023
:10292000014A11607047000080E200E010B5002805
:1029300019DA1A4A03071B0F083B9B089B00D25861
:102940008307DC0EFF23A3409A438B071B0E8407EB
:10295000E40EA3401A43114B0407240F083CA408BB
:10296000A4001A5118E00E4A03231B02D218830850
:102970009B00D2588307DC0EFF23A3409A438B07AA
:102980001B0E8407E40EA3401A43054B03242402C4
:102990001B198408A4001A5110BD00001CED00E0B2
:1029A00000E100E010B5002819DA1A4A03071B0FEE
:1029B000083B9B089B00D2588307DC0EFF23A340F3
:1029C0009A438B071B0E8407E40EA3401A43114B56
:1029D0000407240F083CA408A4001A5118E00E4A6A
:1029E00003231B02D21883089B00D2588307DC0EF6
:1029F000FF23A3409A438B071B0E8407E40EA340DA
:102A00001A43054B032424021B198408A4001A51FD
:102A100010BD00001CED00E000E100E010B5002852
:102A200019DA1A4A03071B0F083B9B089B00D25870
:102A30008307DC0EFF23A3409A438B071B0E8407FA
:102A4000E40EA3401A43114B0407240F083CA408CA
:102A5000A4001A5118E00E4A03231B02D21883085F
:102A60009B00D2588307DC0EFF23A3409A438B07B9
:102A70001B0E8407E40EA3401A43054B03242402D3
:102A80001B198408A4001A5110BD00001CED00E0C1
:102A900000E100E010B5002819DA1A4A03071B0FFD
:102AA000083B9B089B00D2588307DC0EFF23A34002
:102AB0009A438B071B0E8407E40EA3401A43114B65
:102AC0000407240F083CA408A4001A5118E00E4A79
:102AD00003231B02D21883089B00D2588307DC0E05
:102AE000FF23A3409A438B071B0E8407E40EA340E9
:102AF0001A43054B032424021B198408A4001A510D
:102B000010BD00001CED00E000E100E000B5002079
:102B100000F050FA012802D1002000F013FA012041
:102B200000F048FA012801D100F00CFA022000F070
:102B300041FA012802D1022000F004FA032000F03B
:102B400039FA012802D1032000F0FCF9042000F03A
:102B500031FA012802D1042000F0F4F900BD000090
:102B600010B502460120130001F0A1F805040E186B
:102B7000222C38001B4B5B6A1B0A1B02CCB223437E
:102B8000184C636200202BE0164BDB6A1B0A1B0209
:102B9000CCB22343134CE362002021E0114B5B6B6A
:102BA0001B0A1B02CCB223430E4C6363002017E0C8
:102BB0000C4BDB6B1B0A1B02CCB22343094CE363B7
:102BC00000200DE0074B40335B681B0A1B02CCB2B0
:102BD0002343044C40346360002001E0012000BF27
:102BE00000BF10BD0010004010B5024601201300C8
:102BF00001F05DF805040E18222E3A001C4B9B6A6A
:102C00001B0A1B02CCB22343194CA36200202DE007
:102C1000174B1B6B1B0A1B02CCB22343144C2363C0
:102C2000002023E0124B9B6B1B0A1B02CCB22343F8
:102C30000F4CA363002019E00D4B40331B681B0AA7
:102C40001B02CCB223430A4C4034236000200DE029
:102C5000074B40339B681B0A1B02CCB22343044C36
:102C60004034A360002001E0012000BF00BF10BD80
:102C70000010004030B502460120130001F017F8A3
:102C80000504488CD0FDFC00AD4B1B694024A343D8
:102C90000C78A40140252C402343A94C23612346F2
:102CA0001B692024A3434C78640120252C40234336
:102CB000A34C236123461B691024A3438C78240171
:102CC00010252C4023439E4C236123461B69082476
:102CD000A343CC78E40008252C402343984C23617F
:102CE00023461B690424A3430C79A40004252C402B
:102CF0002343934C236123461B690224A3434C794D
:102D0000640002252C4023438D4C2361002014E1F4
:102D10008B4B5B694024A3430C78A40140252C40D5
:102D20002343874C636123465B692024A3434C788B
:102D3000640120252C402343814C636123465B6959
:102D40001024A3438C78240110252C4023437C4C71
:102D5000636123465B690824A343CC78E40008251B
:102D60002C402343764C636123465B690424A343D0
:102D70000C79A40004252C402343714C6361234645
:102D80005B690224A3434C79640002252C40234351
:102D90006B4C63610020D0E0694B9B694024A343E6
:102DA0000C78A40140252C402343654CA3612346A5
:102DB0009B692024A3434C78640120252C402343A5
:102DC0005F4CA36123469B691024A3438C782401A4
:102DD00010252C4023435A4CA36123469B690824A9
:102DE000A343CC78E40008252C402343544CA36132
:102DF00023469B690424A3430C79A40004252C409A
:102E000023434F4CA36123469B690224A3434C797F
:102E1000640002252C402343494CA36100208CE030
:102E2000474BDB694024A3430C78A40140252C4088
:102E30002343434CE3612346DB692024A3434C78BE
:102E4000640120252C4023433D4CE3612346DB698C
:102E50001024A3438C78240110252C402343384CA4
:102E6000E3612346DB690824A343CC78E40008250A
:102E70002C402343324C01E05DE018E0E36123463F
:102E8000DB690424A3430C79A40004252C402343CC
:102E90002B4CE3612346DB690224A3434C79640095
:102EA00002252C402343264CE361002045E0244BBF
:102EB0001B6A4024A3430C78A40140252C402343E3
:102EC0001F4C236223461B6A2024A3434C786401D1
:102ED00020252C4023431A4C236223461B6A1024CE
:102EE000A3438C78240110252C402343144C2362E7
:102EF00023461B6A0824A343CC78E40008252C4011
:102F000023430F4C236223461B6A0424A3430C79FA
:102F1000A40004252C402343094C236223461B6A4A
:102F20000224A3434C79640002252C402343044C23
:102F30002362002001E0012000BF00BF30BD00007F
:102F40000010004000B5014601200B0000F0AFFE6C
:102F500005040C141C242C00154AD2685208520097
:102F6000134BDA60002021E0114AD26802239A4311
:102F70000F4BDA60002019E00D4AD26804239A430F
:102F80000B4BDA60002011E0094AD26808239A430B
:102F9000074BDA60002009E0054AD26810239A4303
:102FA000034BDA60002001E0012000BF00BF00BD3C
:102FB0000010004000B5014600200B0000F077FE35
:102FC0000504090E13181D000E4A1268D007C00F21
:102FD00015E00C4A12689207D00F10E0094A1268F7
:102FE0005207D00F0BE0074A12681207D00F06E015
:102FF000044A1268D206D00F01E0002000BF00BFD3
:1030000000BD00000010004010B5044601480068F3
:10301000804710BDF000002010B501460120134A82
:10302000526880239A430B78DB01802423401A43A3
:103030000E4B5A601A46526840239A434B789B01C4
:10304000402423401A43094B5A601A4652680E2303
:103050009A438B785B000E2423401A43034B5A603B
:10306000034B4A681A60002010BD000000100040A9
:10307000F0000020012004490968402291434031BA
:10308000014A116000207047001000400B49096898
:103090000B4A126891420FD008490A6809498A42CE
:1030A00002D32739054A11600449096808780349A1
:1030B0000968491C014A116070470000E0000020C7
:1030C000DC0000201C05002038B5F94800780128F4
:1030D0007ED1F848007800287BD1F7480088F7496E
:1030E000098888420BD0F6480088F449098888424C
:1030F00005D0F4480088F149098888426AD1F2482D
:103100000078042807D00F2806D0112802D01228F2
:1031100007D100BF00BF00BFEB480078EB49088033
:1031200000E000BF00BF01F0A7FBE9480088E749C5
:10313000098888427ED1E448007810280AD004DC4F
:10314000012878D00C2877D1CFE0132875D0152826
:10315000F9D15FE0DF480068002808D10120DD498F
:10316000086001F015FC062000F08AFB51E0002009
:10317000D8490860D849086048608860C86008611C
:10318000D4480079002804D0012803D002283FD178
:1031900004E000BF062000F073FB39E0CF48007860
:1031A000002802D1062000F06BFBCC4800780228F2
:1031B00017D1FEF741FBC848008A80B2C64C009088
:1031C000A489A3B2C44C2489A2B2C34CA48802E04F
:1031D00073E2E2E164E2A1B2BF4C2488A0B203F042
:1031E000BBF9BE480078012811D1BB48008A80B2E3
:1031F000B94C0090A489A3B2B74C2489A2B2B64CB2
:10320000A488A1B2B44C2488A0B203F0A5F900BFF1
:1032100000BFBEE1AF480068012865D1AD48007924
:10322000002861D1AB488068FF22F532811A9042B4
:103230001BD003E0AEE1BEE0AAE160E106DC642859
:103240000BD0FF382D3800281BD10AE0C82910D038
:10325000FF39F539002914D10FE00020A04908708A
:1032600010E001209E4908700CE002209C49087083
:1032700008E003209A49087004E004209849087087
:1032800000E000BF00BF96480078042804DA9448A4
:103290000078401C9249087091480078030000F0C3
:1032A00006FD0504080D12171C006420894988607A
:1032B00014E0FF202D30874988600FE0FF20F530B3
:1032C000844988600AE0AF2080008249886005E078
:1032D0007D20C0007F49886000E000BF00BF01F092
:1032E00057FB062000F0CCFA53E17A480068012829
:1032F00060D17848007900285CD176488068FF2248
:10330000F532811A904216D006DC64280BD0FF38C3
:103310002D3800281BD10AE0C82910D0FF39F53913
:10332000002914D10FE000206D49087010E0012041
:103330006B4908700CE002206949087008E003201E
:103340006749087004E004206549087000E000BF88
:1033500000BF63480078002804DD61480078401E03
:103360005F4908705E480078030000F0A0FC050487
:10337000080D12171C0064205649886014E0FF20D5
:103380002D30544988600FE0FF20F53051498860A6
:103390000AE0AF2080004F49886005E07D20C00032
:1033A0004C49886000E000BF00BF01F0F1FA062040
:1033B00000F066FAEDE047480068012876D14948F8
:1033C0000078401C47490870052146480078FCF702
:1033D000FEFE0B0000F06BFC055F041E3B578800EF
:1033E00001203C49087100200874002139484174CB
:1033F0008174C1740175032141750E218175082105
:10340000C17500210176032141760E2181760821C4
:10341000C1766DE001202F49087100200874002159
:103420002C484174072181740821C1740021017561
:10343000032141750E2181750821C1750021017696
:10344000032141760E2181760821C17650E00120CA
:10345000204908710020087400211E4841740F2182
:1034600081740021C1740175032141750E2181759C
:103470000821C17500210176032141760E21817654
:103480000821C17634E00020124908717D20C00077
:10349000C86088602CE000200E490871C8607D205B
:1034A000C000886000200F49087021E026E000007D
:1034B0008900002016000020100000208A00002053
:1034C0001200002014000020880000208E00002040
:1034D0008C0000207801002044010020B40000206E
:1034E0000D0000200C00002000207449087000BF6F
:1034F00000BF01F04DFA062000F0C2F949E0704823
:103500000068012843D16E48007900283FD16C48FB
:10351000C068002802D16B49087008E06848C0689C
:103520007D21C900884202D10120664908706548A2
:103530000078401C63490870052162480078FCF758
:1035400046FE0B0000F0B3FB051604090D121C002B
:103550007D20C0005A49C86013E05B485849C860E4
:103560000FE0FF20F5305649C8600AE0FA205449C0
:10357000C86006E000205249C8605249087000E067
:1035800000BF00BF01F004FA062000F079F900E066
:1035900000BF00BF03F062F989E04C4800780128C1
:1035A0007ED1002049490870494800884949098866
:1035B000884237D04648008847490988884231D038
:1035C000434800884549098888422BD001F060F9BA
:1035D00043480078401C4249087008460078032898
:1035E00001DD032008703F48007812280BD03D48C9
:1035F0000078112807D03B480078042803D03948C8
:1036000000780F2807D137480078374908800846E6
:1036100000883649088003F0A3F803F033F803F07C
:103620008FF819E02F48007812280BD02D48007829
:10363000112807D02B480078042803D029480078A7
:103640000F2807D1274800782749088008460088B6
:103650002649088003F074F80120FDF7EDFE01F023
:1036600097F92348008A80B2214C0090A489A3B224
:103670001F4C2489A2B21E4CA488A1B21C4C2488E1
:10368000A0B202F069FF1A4800681949486108466B
:103690004068886108468068C8610846C06800E0E4
:1036A00005E0086208460069486201F0C5F8642038
:1036B00000F0B8FC00200F49087038BD0C00002055
:1036C000780100200E000020EE020000160000200D
:1036D0008A000020100000201200002014000020AA
:1036E00017000020880000208C0000208E000020A1
:1036F000440100208900002010B5FEF759F9014966
:10370000086010BD000000201CB50220FEF740FA42
:1037100001210020FEF7D6F8FFF7EEFF08216846EA
:1037200000F070FC0120694648700348019068462B
:10373000FEF758FB1CBD0000FFFFFF0010B5002086
:10374000FDF738FF012829D10020FDF7B3FE14480A
:103750000078401C12490870084600787D2807D17F
:1037600010480068401C0F49086000200C49087090
:103770000D480078002801D100F0CAFE0A48007800
:1037800001280BD10948008F094908700748808D2E
:1037900000020649098E08430649088010BD000052
:1037A000A4000020B80000208900002000010020B3
:1037B000880000208A00002010B50220FDF7FAFEE4
:1037C000012804D10220FDF775FE01F093FF10BD22
:1037D00010B50446002C04D0012C06D0022C0CD1CC
:1037E00007E007480068804708E00648006880470F
:1037F00004E005480068804700E000BF00BF10BD3E
:103800007C0000208000002084000020F0B585B0FE
:1038100004460125A00006214843C91F081A86B2A4
:10382000154F164802900021684641708170C170A2
:1038300001710121417169460020FDF7DBFE00287E
:1038400000D000BF0020FDF735FE0020FDF786FE0A
:10385000012203210E20FEF725FB31460020FDF753
:10386000FBFD39460020FDF74BFE0020FDF7BAFFB7
:10387000284605B0F0BD0000FAFF00003D3700000B
:10388000F1B58CB0012006900C98FDF7A2F9044622
:10389000224A234BFCF72CFF06460022214BFDF762
:1038A0009BF90022204B01910090FCF709FF039146
:1038B0000290FDF741F980B205901C4804901C4825
:1038C0000B90002168464177072181770021C1775D
:1038D00008A801700121417007A90220FDF78AFEA6
:1038E000002801D0012006900220FDF7E3FD022010
:1038F000FDF734FE012203211020FEF7D3FA022047
:103900000599FDF7A9FD02200499FDF7F9FD0220B4
:10391000FDF768FF06980DB0F0BD00007B14AE47C0
:10392000E17AE43F00001440E0FFEF40FAFF0000BE
:10393000B937000070B50546A81D44B22046FEF711
:10394000E1FF03212046FFF769F82046C206D20EA8
:1039500001219140014A116000BF70BD80E100E08B
:1039600010B502460020002100BF0BE014234B439A
:10397000064CE358934203D114234B43181903E038
:103980004B1CD9B20229F1D300BF10BD500000205A
:1039900070B50546A81D44B22046FEF7B3FF0321CB
:1039A0002046FFF73BF82046C206D20E0121914087
:1039B000014A116000BF70BD00E100E070B506462D
:1039C0000D4600243046FFF7CBFF0446002C01D102
:1039D000042070BD002D04D0012D09D0022D15D179
:1039E0000DE06068406904218843616848610FE028
:1039F00060684069400840006168486108E06068AC
:103A00004069022188436168486101E00420E0E7E1
:103A100000BF0020DDE770B506460D4600243046A5
:103A2000FFF79EFF0446002C01D1042070BD6068A2
:103A30004068102188432901102211400843616821
:103A400048600020F2E770B506460D460024304677
:103A5000FFF786FF0446002C01D1042070BD002D25
:103A600002D0012D10D107E0606840680221884330
:103A7000801C6168486009E0606840684008400058
:103A8000401C6168486001E00420E7E700BF0020B7
:103A9000E4E7000070B5054600242846FFF760FF04
:103AA0000446002C00D170BD606800694007C00F5B
:103AB000002809D000212846FFF780FFE068002891
:103AC00001D0E0688047EEE760680069C007C00F7A
:103AD00000280DD001212846FFF770FF206900283B
:103AE00001D0206980470B490968C8B203F044F847
:103AF000606800698007C00F002808D002212846AE
:103B0000FFF75CFFA068002801D0A068804700BFD5
:103B1000C9E7000000010040F8B506460C46012741
:103B200000253046FFF71CFF0546002D01D104207B
:103B3000F8BD002C01D10420FAE72178304600F0CE
:103B40007AF807466068002804D03046616800F0C3
:103B50008AF80746A068002808D0A0684168E96094
:103B6000A06881682961A0680068A860207B01289E
:103B700003D13046FFF70CFF02E03046FFF7DAFED4
:103B800000273846D4E770B506460C460025304677
:103B9000FFF7E6FE0546002D01D1042070BD02218D
:103BA0003046FFF70BFF68680460022000F03AFA25
:103BB00002213046FFF702FF0020EFE7F8B5074685
:103BC0000E4614460020009000253846FFF7C8FE38
:103BD0000546002D01D0002C01D10020F8BD6868F9
:103BE000406801214902884361784902012252025A
:103BF00011400843696848602078002806D00128F1
:103C000006D0022803D0032811D102E000BF0FE044
:103C100000BF626851016278521C72431046FCF783
:103C2000CCFA01210904081A80B2009000E000BF1C
:103C300000BF0098D2E770B506460D460024304616
:103C4000FFF78EFE0446002C01D1042070BD606891
:103C50004068C0218843A901C0221140084361681F
:103C600048600020F2E770B506460C460025304655
:103C7000FFF776FE0546002D01D1042070BD002C13
:103C800013D06868406820218843217849012022A8
:103C900011400843696848602078012805D16078A0
:103CA00069688860A0786968C8600020E6E730B479
:103CB0007446641E2578641CAB4204D3635D5B00CC
:103CC000E31830BC18471D46F8E700BF70470000F6
:103CD000F8B504460D4601210A20FDF73BFF0021FF
:103CE00068460170012141700721817069462046B4
:103CF000FDF71EFB2946182251437D22D200514375
:103D00000846C917890D091889010D0C2946204656
:103D1000FDF772FB002600273A4631462046FDF7A4
:103D20004BFB002C06D10E4B012200212046FDF753
:103D30002FFA10E0012C06D10A4B01220021204667
:103D4000FDF726FA07E0022C05D1074B01220021DE
:103D50002046FDF71DFA2046FDF75CFBF8BD00008C
:103D600015110000251100006511000010B50C228E
:103D70002D49881A02F0CBF82C4802782A49DE3106
:103D80000846D23802F0C3F801210320FEF7FCFBFD
:103D9000002824D124481C380178012001F096FF26
:103DA00021481C380179022001F0C4FF1E481C384C
:103DB0008168032002F022F81B481C38C1680420E7
:103DC00002F01CF80C221849052001F0DFFF17480B
:103DD00002781549DE31062001F0D8FF23E01248B1
:103DE0001C380178142001F071FF0F481C3801794C
:103DF000152001F09FFF0C481C388168162001F047
:103E0000FDFF09481C38C168172001F0F7FF0C229C
:103E10000549182001F0BAFF044802780249DE3152
:103E2000192001F0B3FF10BD94010020B50000205F
:103E300001460020087800024A78104300028A7880
:103E400010430002CA78104370470000F0B587B0F5
:103E500004465549E01C085C049004980300FFF7F1
:103E600026FF0F090F121562666A9F909F9F9F9F02
:103E70009F939F0000F0B2FF01204C49087090E032
:103E800002F01AF98DE000F074FF8AE04649A01DA7
:103E9000085C474908700021032002F049FF01F047
:103EA000F7FF0646002E06D102F06AFCFA21012037
:103EB000FFF70EFF36E0012E0CD101210320FEF7A3
:103EC00063FB012806D102F05BFC3A490120FFF7B1
:103ED000FFFE27E00120FDF7AFFA00F059FD36485C
:103EE000008A80B200903448808983B232480089C9
:103EF00082B23148808881B22F48008880B2019018
:103F000002F02AFB2C4800682B49486108464068AB
:103F1000886108468068C8610846C068086208462B
:103F2000006948623DE001202449087039E0012021
:103F30002349087035E01C49201D085C00020590EB
:103F4000601D095C0598081880B20590002514E0F2
:103F5000A01D4019801C1449085C0702A01D4019CF
:103F6000C01C085CC01987B20919891D481900F0E6
:103F700029F80690381D281885B205988542E7DB98
:103F80000FE0FFF7F3FE0CE00749A01D085C03906B
:103F9000E01D085C02900299039802F033FE00E0F5
:103FA00000BF00BF07B0F0BDF4030020E800002010
:103FB000E7000020DC05000044010020E5000020AF
:103FC000E6000020FEB5044626786778A078050252
:103FD000E078401985B2304600F082FC01900198EB
:103FE0004000074940184078B84201D00020FEBD8B
:103FF0002A46211D304600F08FF800900098F6E721
:10400000C400002010B50A460146002900D110BDA9
:1040100002E000230B70491C1346521E002BF8D1FE
:1040200000BFF4E770B5054610E000200A4988613A
:104030007D21C90009480068FCF7BFF80121090685
:104040000C1A00BF04488069A042FBD828466D1EA8
:104050000028EAD170BD000000E000E00000002070
:10406000F8B506460F463946304601F009FF0546C9
:104070000F48856000F08CFC0620FFF701FC02F081
:10408000EDFB01210320FEF77FFA002805D1294628
:10409000032001F0B3FE044604E02946162001F097
:1040A000ADFE0446002C01D10020F8BDFF20FCE746
:1040B00078010020FEB506460F46002503E0705D3E
:1040C000694648556D1CBD42F9DB3A4611496846C0
:1040D00001F08AFF00F05CFC0620FFF7D1FB02F044
:1040E000BDFB01210320FEF74FFA002806D13A4616
:1040F0003146052001F04AFE044605E03A463146C5
:10410000182001F043FE0446002C01D10020FEBD22
:10411000FF20FCE788010020F8B505460E4617464B
:10412000142D11D007DC2B00FFF7C1FD07563238E4
:104130003E444A505600284615380300FFF7B7FDA5
:10414000050A10161C224C003946304600F0A4F82F
:10415000044642E03946304600F068F904463CE047
:1041600039463046FFF77CFF044636E03946304694
:1041700000F032F9044630E039463046FFF79AFF46
:1041800004462AE03946304600F02AF8044624E086
:104190003946304600F080F804461EE03946304685
:1041A00000F044F9044618E039463046FFF758FF5E
:1041B000044612E03946304600F00EF904460CE0A1
:1041C00039463046FFF776FF044606E0394630466A
:1041D00000F006F8044600E000BF00BF2046F8BD2E
:1041E000F0B5B5B007460C4625490C70002603E033
:1041F000B85D69468855761CA642F9DB22462149FE
:10420000684601F0F1FE02F069FB00F0C1FB1E48B8
:104210000078002803D10620FFF732FB16E01A4889
:104220000078012802D10220FDF706FB1548283846
:104230000068012802D11549087002E000201349E6
:10424000087000201249086012490860012103200B
:10425000FEF79AF9002806D122463946062001F0D9
:1042600095FD054605E022463946192001F08EFDF0
:104270000546002D02D1002035B0F0BDFF20FBE740
:10428000B5000020A0010020B4000020B6000020EE
:10429000BC000020C0000020F3B581B006463046C7
:1042A000029901F0E7FD0546002D4CD14449086014
:1042B0004449086048608860C860086140480079E7
:1042C000002804D0012803D002283BD104E000BF1D
:1042D0000620FFF7D5FA35E03B480078002802D1E8
:1042E0000620FFF7CDFA38480078022813D1FDF7F1
:1042F000A3FA3448008A80B2324F0090BF89BBB223
:10430000304F3F89BAB22F4FBF88B9B22D4F3F8887
:10431000B8B202F021F92C480078012811D12948BF
:10432000008A80B2274F0090BF89BBB2254F3F89DA
:10433000BAB2244FBF88B9B2224F3F88B8B202F058
:104340000BF900BF24E001201D49086000F020FBAC
:104350001B480079002804D0012803D0022816D178
:1043600004E000BF0620FFF78BFA10E01648007843
:10437000002803D10620FFF783FA07E00120134944
:1043800008700020124908601249086000BF00BF91
:1043900001210320FEF7F8F8002805D12946012065
:1043A00001F094FC044604E02946142001F08EFC40
:1043B0000446002C01D10020FEBDFF20FCE70000D8
:1043C0007801002044010020B4000020B600002045
:1043D000BC000020C0000020F8B506460F46394654
:1043E000304601F04DFD05460F48C56000F0D0FA9B
:1043F0000620FFF745FA02F031FA01210320FEF70B
:10440000C3F8002805D12946042001F0F7FC044632
:1044100004E02946172001F0F1FC0446002C01D1EC
:104420000020F8BDFF20FCE778010020F8B5064623
:104430000F463946304601F020FD05462E480571ED
:1044400000F0A6FA02F00AFA002D04D0012D0AD0DD
:10445000022D38D10FE028480068012802D106203B
:10446000FFF70EFA30E024480068012802D1062048
:10447000FFF706FA28E021480078002807D11E48F7
:10448000006801281ED10620FFF7FAF91AE01A4841
:104490000068012802D11A49087002E0002018497A
:1044A00008700020174908601749086017494861DB
:1044B0008861C8610862486203460246014600906E
:1044C00002F04AF800E000BF00BF01210320FEF720
:1044D0005BF8002805D12946022001F02BFC044698
:1044E00004E02946152001F025FC0446002C01D1EA
:1044F0000020F8BDFF20FCE778010020B400002078
:10450000B6000020BC000020C000002044010020B4
:1045100010B5C64800680300FFF7C9FB050456A0A4
:10452000EAFDFC0004210320FEF72EF8012822D129
:10453000BE480069401CBD49086108464069002822
:1045400041D008464069462810D308464069C8282B
:104550000CD80220C8600020086148618862886128
:10456000C86108624862012008602CE00020AF4961
:104570004861086027E004210320FEF705F80028C1
:1045800021D1AA484069401CA849486108460069F1
:10459000002818D008460069462810D3084600694C
:1045A000C8280CD80120C8600020086148618862D2
:1045B0008861C861086248620120086003E0002049
:1045C0009A49086108602EE19848C068012820D106
:1045D00004210320FDF7D8FF002805D19348C069C6
:1045E000401C9249C86138E09048C06900280CD04E
:1045F0008E48C0691E2808D88C48C0698B4948601D
:104600000020C8610220086027E000208749086078
:1046100023E08648C06802281FD104210320FDF74B
:10462000B3FF012805D181488069401C7F4988611A
:1046300013E07E48806900280CD07C4880691E28E1
:1046400008D87A488069794988600020886102200A
:10465000086002E0002075490860E4E07348C06823
:10466000012820D104210320FDF78EFF012805D168
:104670006E488069401C6D49886138E06B488069EC
:1046800000280CD0694880691E2808D867488069CE
:1046900066498860002088610320086027E00020C8
:1046A0006249086023E06148C06802281FD10421E4
:1046B0000320FDF769FF002805D15C48C069401C54
:1046C0005A49C86113E05948C06900280CD05748BE
:1046D000C0691E2808D85548C06954494860002060
:1046E000C8610320086002E00020504908609AE099
:1046F0004E48C068012842D14C48806A40004B496E
:104700008862084680684968884209D24748806ABA
:10471000012101E082E076E008434449886205E037
:104720004248806AFE210840404988623F48006A4A
:10473000401C3E4908620846006A07280FD908460F
:10474000816A406A820039482C3081500020374904
:1047500008620846406A401C48620020886233486C
:10476000406A022807D931482C30007A2F498863E3
:104770000420086046E001202C49086042E02B48F4
:10478000C06802283ED12948806A400027498862D3
:10479000084680684968884206D92448806A012111
:1047A00008432249886205E02048806AFE210840CB
:1047B0001E4988621D48006A401C1C490862084660
:1047C000006A07280FD90846816A406A82001748A4
:1047D0002C3081500020154908620846406A401C70
:1047E0004862002088621148406A022807D90F48B1
:1047F0002C30007A0D4988630420086002E0012013
:104800000A4908600FE000200849C86008600120DC
:104810000749087000200749087004E00020034998
:10482000C860086000BF00BF10BD0000000100208C
:1048300089000020E800002010B509480068FDF755
:1048400076FE0849088008480068FDF770FE0749B1
:10485000088007480068FDF76AFE0649088010BD19
:1048600038000020100000203C0000201200002032
:10487000400000201400002010B503480068FDF738
:1048800053FE0249088010BD480000208C00002023
:1048900010B50A480068FDF747FE09490870084648
:1048A0000078002803DB08460078032804DD002098
:1048B0000349087001F054FF10BD000044000020BF
:1048C0001700002030B502460020002305E01578CF
:1048D000521C2C18E0B25C1CA3B28B42F7DB30BD3B
:1048E00070B5054600F012F80646002407E06000A7
:1048F0000549085CA84200D103E0601CC4B2B44280
:10490000F5DB00BF204670BDC40000200C207047BE
:1049100070B518480068FDF707FE0546012D25D142
:1049200015480068FDF700FE144908601448006847
:10493000FDF7FDFD1149886012480068FDF7F7FD9D
:104940000E49C86010480068FDF7EEFD0B4908717C
:10495000002408E00D4909680819FDF7E5FD07493D
:1049600010310855641C0C2CF4DB01E001F008FF49
:1049700070BD0000180000201C00002078010020FD
:104980002000002024000020280000202C0000200F
:10499000FEB5E2480079002804D0012819D0022889
:1049A0007DD14FE0DD498968DC4AD2685143084631
:1049B0007D21C900FBF701FCD949C860D748806850
:1049C000C968401AD64908610020086048608860BC
:1049D000A2E1D24DEB7CAA7C697C287C01F085FAAF
:1049E000CF498862EB7DAA7D697D287D01F07DFA43
:1049F000CB49C862EB7EAA7E697E287E01F075FAFB
:104A0000C7490863086BFCF74FFB0546C449C86AF1
:104A1000FCF74AFB0646C249886AFCF745FB074695
:104A20002A46314600F0F6F9BE480068BC490860E5
:104A3000BD4800684860BD48006888600020C860C4
:104A4000086169E1B54A2832D179907901F044FAD8
:104A5000B74908700846007800285BD1AF4D28356B
:104A6000EB7AAA7A697A287A01F03FFAAC4988622F
:104A7000EB7BAA7B697B287B01F037FAA849C862E7
:104A8000EB7CAA7C697C287C01F02FFAA44908639E
:104A9000086BFCF709FB0546A149C86A00E03AE14A
:104AA000FCF702FB06469E49886AFCF7FDFA0746BA
:104AB0002A46314600F0AEF99A48006898490860E5
:104AC000994800684860994800688860934D283587
:104AD000EB7DAA7D697D287D01F007FA9549086084
:104AE000EB7EAA7E697E287E01F0FFF9914948603D
:104AF0000968904A5268514308467D21C900FBF776
:104B000066FB8749C8608B480068C968401A8449B9
:104B10000861FFE000208249C860086108604860C1
:104B2000886048618861C861086248628149487349
:104B30007A4D2835EB7DAA7D697D287D01F0D5F978
:104B40007C490860EB7EAA7E697E287E01F0CDF963
:104B5000784948602A46D178907801F0BDF98C21D7
:104B6000081A7449886074490978881E1A21FBF76D
:104B70002EFB704908730024AEE01A2565430B35FF
:104B8000664E2836735D1A2565430A35725D1A250F
:104B900065430935715D1A2565430835705D01F07F
:104BA000A4F95F4988621A2565430F35735D1A259C
:104BB00065430E35725D1A2565430D35715D1A2505
:104BC00065430C35705D01F090F95549C8621A25AE
:104BD00065431335735D1A2565431235725D1A25D9
:104BE00065431135715D1A2565431035705D01F01F
:104BF0007CF94B4908631A2565431735735D1A25FF
:104C000065431635725D1A2565431535715D1A25A4
:104C100065431435705D01F068F9464908601A254E
:104C200065431B35735D1A2565431A35725D1A2578
:104C300065431935715D1A2565431835705D01F0BE
:104C400054F93C4948603649086BFCF72DFA054693
:104C50003349C86AFCF728FA06463149886AFCF7E6
:104C600023FA07462A46314600F0D4F82D48026858
:104C7000142060432F4910310A502B480268142039
:104C8000604340184260294802681420604340187D
:104C9000826010390968274A5268514308467D21CD
:104CA000C900FBF794FA14216143224A1032891893
:104CB000C86020480268142060431E491031401823
:104CC000C068121A14206043401802611448008D15
:104CD00069460855601CC4B21648007BA04200DD3E
:104CE0004BE700240DE06846015D6A46601C105CDD
:104CF000814204D00F48407B401C0E494873601C21
:104D0000C4B20C48007B401EA042ECDC00200449E9
:104D1000C860086100E000BF00BFFEBD7801002050
:104D200044010020A8000020AC000020B0000020BA
:104D3000B400002044030020B5000020F0B5044674
:104D40008C4201D9204600E0084605469A4201D926
:104D5000104600E018460646B54201DD284600E050
:104D6000304607460598874201D93846F0BD059878
:104D7000FCE710B500242146022001F0D9FF10BD48
:104D80000448006804490968884201D0012070473E
:104D90000020FCE7DC000020E000002010B50B48FC
:104DA0000068FDF7C1FB0A490870002408E06100B3
:104DB000084A12688818FDF7B7FB07490855641CB4
:104DC000034800788442F2DB10BD00003000002070
:104DD000B500002034000020A001002010B5002400
:104DE0000B480078002808D10021204601F00EFE73
:104DF000C4B201200649087004E00121204601F0F8
:104E000005FEC4B22146002001F092FF10BD000053
:104E1000EC000020F7B58CB014465E490D98FCF705
:104E200029F80D905B492046FCF724F804460C98BD
:104E3000FBF7F6FF0022584B01910090FBF758FC5E
:104E400003910290FBF76AFA0A9054490C98FCF718
:104E500011F80390FCF7BEF8089006210898FBF7BC
:104E6000B6F90D460898FCF717F903900A9902F075
:104E70002BF809907F20C0050D9902F031F82146EA
:104E8000039001F0C9FF06460D99099801F0C4FF8F
:104E90007F21C905029002F017F82146039001F026
:104EA000BBFF07467F20C005099902F019F8019061
:104EB0000D9901F0B1FF7F21C905029002F004F8BD
:104EC0002146039001F0A8FF049000200590069071
:104ED0000790002D04D107940498069005961EE0D3
:104EE000012D03D107970694059618E0022D04D1F1
:104EF000079606940498059011E0032D03D10796B8
:104F0000069705940BE0042D04D1049807900696AB
:104F1000059404E0052D02D107940696059707989D
:104F2000FBF77EFF00221E4B01910090FBF754FE21
:104F300003910290FBF7F2F907900698FBF770FFD8
:104F40000022174B01910090FBF746FE039102905F
:104F5000FBF7E4F906900598FBF762FF0022104B7F
:104F600001910090FBF738FE03910290FBF7D6F910
:104F700005900798FCF754F80A4908600698FCF772
:104F80004FF8094908600598FCF74AF80749086096
:104F90000FB0F0BD00007A4400004E4000007042A7
:104FA00000408F40A8000020AC000020B00000208E
:104FB00038B507210220FDF7E7FA002860D132203A
:104FC000FFF730F807210220FDF7DEFA0028F5D1BF
:104FD0002FE06420FFF726F8F6480078401CF549DA
:104FE000087008460078322804D1FA210120FEF723
:104FF0006FFE1EE0EF480078642815DB01210320D6
:10500000FDF7C2FA012807D1EB480078012803D147
:10501000EA49FEF75DFE0CE0E7480078002808D179
:105020000120FCF709FA0AE0E2480078FA2800DDDE
:1050300005E007210220FDF7A7FA0028C9D000BF2C
:10504000DC48007832281CDBDA480078642818DA5B
:105050000020D849087001F093FB01210320FDF7DF
:1050600093FA002802D100F019FF02E0002000F0BE
:1050700021FFD1480078002835D10120D04908709F
:1050800031E0CC48007864282ADB0020C949087048
:1050900001210320FDF778FA012809D1C6480078DC
:1050A000012805D101F06CFB012000F003FF1AE09C
:1050B000C1480078002816D1C2490880C24908803A
:1050C000C2490880C2480068FDF7F8F8C148006886
:1050D000FDF7F4F8FFF75CFC0620FEF7D1FB02E0D9
:1050E0000020B449087005210120FDF74DFA002881
:1050F00074D16420FEF796FF05210120FDF744FAE4
:1051000000286BD1B4480068002808D10120B249BA
:105110000860FFF73DFC0620FEF7B2FB4DE00020E3
:10512000AD490860AD49086048608860C8600861A2
:10513000A9480079002804D0012803D002283BD1D7
:1051400004E000BF0620FEF79BFB35E0A448007892
:10515000002802D10620FEF793FBA1480078022820
:1051600013D1FCF769FB9D48008A80B29B4C0090EC
:10517000A489A3B2994C2489A2B2984CA488A1B264
:10518000964C2488A0B201F0E7F9954800780128F0
:1051900011D19248008A80B2904C0090A489A3B2A9
:1051A0008E4C2489A2B28D4CA488A1B28B4C248849
:1051B000A0B201F0D1F900BF00BF01210320FDF72B
:1051C000E3F9002805D184480178012000F07EFD34
:1051D00004E081480178142000F078FD02210020CD
:1051E000FDF7D2F9002879D16420FEF71BFF0221D8
:1051F0000020FDF7C9F9002878D177480068012818
:1052000074D175480079002870D173488068FF22F6
:10521000F532811A904216D006DC64280BD0FF3894
:105220002D3800281BD10AE0C82910D0FF39F539E4
:10523000002914D10FE000206A49087010E0012015
:10524000684908700CE002206649087008E00320F5
:105250006449087004E004206249087000E000BF5F
:1052600000BF60480078042804DA5E480078401CDB
:105270005C4908705B4800780300FEF718FD0504E0
:10528000080D12171C0064205349886014E0FF20A9
:105290002D30514988600FE0FF20F5304E4988607D
:1052A0000AE0AF2080004C49886005E07D20C00006
:1052B0004949886000E000BF00BFFFF769FB062096
:1052C000FEF7DEFA01210320FDF75EF9002806D182
:1052D00041488168032000F091FD05E006E03E486A
:1052E0008168162000F08AFD01F0B8FA042101203F
:1052F000FDF74AF900285CD16420FEF793FE0421F3
:105300000120FDF741F9002853D1334800680128F6
:105310004FD13148007900284BD12F488068FF22B7
:10532000F532811A904216D006DC64280BD0FF3883
:105330002D3800281BD10AE0C82910D0FF39F539D3
:10534000002914D10FE000202649087010E0012048
:10535000244908700CE002202249087008E003206C
:105360002049087004E004201E49087000E000BFD6
:1053700000BF1C480078002804DD1A480078401E51
:1053800018490870174800780300FEF790FC0504E0
:10539000080D2D32370064200F4988602FE0FF2070
:1053A0002D300D4988602AE0FF20F5300A498860D9
:1053B00025E03DE04C000020E8000020DC05000076
:1053C0001600002010000020120000201400002011
:1053D0003800002044000020780100204401002013
:1053E000B40000200D000020AF208000BD4988607F
:1053F00005E07D20C000BB49886000E000BF00BF21
:10540000FFF7C6FA0620FEF73BFA01210320FDF75D
:10541000BBF8002805D1B3488168032000F0EEFCFA
:1054200004E0B0488168162000F0E8FC01F016FAAC
:1054300003210220FDF7A8F8002863D16420FEF7BD
:10544000F1FD03210220FDF79FF800285AD1A5485D
:105450000068012856D1A3480079002852D1A148FC
:10546000C068002802D1A049087008E09D48C068C3
:105470007D21C900884202D101209B4908709A48C9
:105480000078401C98490870052197480078FAF781
:105490009EFE0B00FEF70BFC051604090D121C0006
:1054A0007D20C0008F49C86013E090488D49C860D6
:1054B0000FE0FF20F5308B49C8600AE0FA208949E7
:1054C000C86006E000208749C8608749087000E08E
:1054D00000BF00BFFFF75CFA0620FEF7D1F90121FB
:1054E0000320FDF751F8002805D17E48C16804204B
:1054F00000F084FC04E07B48C168172000F07EFCCB
:1055000001F0ACF901210020FDF73EF8002870D130
:105510006E20FEF787FD01210020FDF735F80028F9
:10552000F5D1704800680128F1D171480078401C1D
:105530006F49087005216E480078FAF748FE0B00A5
:10554000FEF7B5FB0560041E3B586B000120654962
:105550000871002008740021624841748174C1748C
:105560000175032141750E2181750821C175002146
:105570000176032141760E2181760821C17650E023
:1055800001205849087100200874002155484174D1
:10559000072181740821C17400210175032141751F
:1055A0000E2181750821C175002101760321417604
:1055B0000E2181760821C17633E001204949087126
:1055C000002008740021474841740F218174002194
:1055D000C1740175032141750E2181750821C175C2
:1055E00000210176032141760E2181760821C176C2
:1055F00017E063E000203B4908717D20C000C860CF
:1056000088600EE0002037490871C8607D20C00026
:10561000886000203649087003E000203449087093
:1056200000BF00BFFFF7B4F90620FEF729F901F02B
:1056300015F92C480079002825D101210320FCF719
:10564000A3FF00280FD127480179022000F072FB48
:1056500024488168032000F0D1FB2248C16804205F
:1056600000F0CCFB3CE01F480179152000F062FB04
:105670001C488168162000F0C1FB1A48C168172039
:1056800000F0BCFB2CE017480079012828D101214B
:105690000320FCF779FF002811D11248017902207C
:1056A00000F048FB0C220F491C31881A00F02FFC37
:1056B0000C220C491C31052000F068FB10E0094861
:1056C0000179152000F036FB0C2206491C31881A9E
:1056D00000F01DFC0C2203491C31182000F056FB81
:1056E00038BD0000780100200E000020EE0200000E
:1056F0000C000020F0B591B0002500260027002006
:1057000010900F9001200E900D900C900B900A902D
:10571000FB48C068FA49096A884217D1F84800690D
:10572000F749496A884211D1F5480068F449496946
:1057300088420BD1F2484068F1498969884205D115
:10574000EF488068EE49C96988427DD0EC4800681E
:10575000EB494969451AEA484068E9498969461AA6
:10576000E7488068E649C969471AE548C068E449DE
:10577000096A401A1090E2480069E149496A401AF2
:105780000F900F98FBF7BEFC09901098FBF7BAFC3E
:1057900008903846FBF7B6FC07903046FBF7B2FCA2
:1057A00006902846FBF7AEFC05900998009005A8E6
:1057B0000FC8FFF7C3FA0446D248007800287CD10E
:1057C0002046FBF7FEF9079106902846FBF79AFC66
:1057D0000190FBF7F6F90022CB4B03910290FAF708
:1057E00087FF05910490079B069AFAF781FF0991BC
:1057F0000890FAF793FDC54908602046FBF7E1F9E8
:10580000079106903046FBF77DFC0190FBF7D9F934
:105810000022BD4B03910290FAF76AFF05910490B4
:10582000079B069AFAF764FF09910890FAF776FD4C
:10583000B74908602046FBF7C4F90791069038463F
:10584000FBF760FC019000E0C6E1FBF7BAF900222B
:10585000AD4B03910290FAF74BFF05910490079B23
:10586000069AFAF745FF09910890FAF757FDA949FA
:1058700008602046FBF7A5F9079106901098FBF702
:1058800041FC0190FBF79DF900229F4B0391029090
:10589000FAF72EFF05910490079B069AFAF728FF66
:1058A00009910890FAF73AFD9B4908602046FBF7FA
:1058B00088F9079106900F9800E019E0FBF722FCA9
:1058C0000190FBF77EF900228F4B03910290FAF7CB
:1058D0000FFF05910490079B069AFAF709FF0991BB
:1058E0000890FAF71BFD8D49086001208549087072
:1058F0002846FBF707FCA04202D101200E9017E0DA
:105900002046FBF7C9FB069080480168069801F025
:1059100083FA08902846FBF7F5FB0690FBF7BCFBE3
:105920000790089901F0DCFA0990FBF779FB0E90DB
:105930003046FBF7E7FBA04202D101200D9017E0B3
:105940002046FBF7A9FB069071480168069801F014
:1059500063FA08903046FBF7D5FB0690FBF79CFBFB
:105960000790089901F0BCFA0990FBF759FB0D90DC
:105970003846FBF7C7FBA04202D101200C9017E08C
:105980002046FBF789FB069062480168069801F003
:1059900043FA08903846FBF7B5FB0690FBF77CFB13
:1059A0000790089901F09CFA0990FBF739FB0C90DD
:1059B0001098FBF7A7FBA04202D101200B9017E043
:1059C0002046FBF769FB069053480168069801F0F2
:1059D00023FA08901098FBF795FB0690FBF75CFB09
:1059E0000790089901F07CFA0990FBF719FB0B90DE
:1059F0000F98FBF787FBA04202D101200A9017E025
:105A00002046FBF749FB069044480168069801F0E0
:105A100003FA08900F98FBF775FB0690FBF73CFB29
:105A20000790089901F05CFA0990FBF7F9FA0A90DF
:105A3000002D1AD02846FBF765FB0E99884205D247
:105A40002F48406940192E4948610EE0002D06DAC2
:105A50002B4841690E98081A2949486105E02848F1
:105A600041690E98081826494861002E1AD0304620
:105A7000FBF748FB0D99884205D2214880698019BF
:105A80001F4988610EE0002E06DA1D4881690D98D5
:105A9000081A1B49886105E0194881690D980818A2
:105AA00017498861002F1AD03846FBF72BFB0C9959
:105AB000884205D21248C069C0191149C8610EE078
:105AC000002F06DA0E48C1690C98081A0C49C86103
:105AD00005E00B48C1690C9808180949C86110987D
