:020000040000FA
:1000000018090020650100007F010000D1290000CF
:1000100000000000000000000000000000000000E0
:10002000000000000000000000000000830100004C
:1000300000000000000000008501000087010000B2
:10004000E1290000EB290000F5290000FF2900004C
:100050008901000089010000092A0000132A00001C
:1000600089010000890100001D2A000089010000AB
:10007000272A000089010000312A00003B2A0000E5
:10008000452A0000890100004F2A0000592A00007B
:10009000632A00006D2A0000772A00008901000011
:1000A000812A0000890100008B2A0000952A0000A7
:1000B0009F2A000089010000A92A0000B32A00003D
:1000C00000F002F800F03EF80CA030C80838241800
:1000D0002D18A246671EAB4654465D46AC4201D180
:1000E00000F030F87E460F3E0FCCB6460126334274
:1000F00000D0FB1AA246AB46334318471C660000EB
:100100003C660000103A02D378C878C1FAD852078A
:1001100001D330C830C101D504680C6070470000BD
:100120000023002400250026103A01D378C1FBD813
:10013000520700D330C100D50B6070471FB51FBDFB
:1001400010B510BD00F0F2FF1146FFF7F7FF05F004
:1001500079F901F01CF803B4FFF7F2FF03BC03F0D8
:10016000F7FC00000C480D4A002100A1814200D993
:1001700002440B4802600B4880470B480047FEE7EB
:10018000FEE7FEE7FEE7FEE7FEE700000748084956
:10019000064A084B704700000000002000000000E5
:1001A00008ED00E079330000C100000018070020CE
:1001B0001809002018070020704700000FB40549F7
:1001C00010B503AA029800F081FF10BC08BC04B06F
:1001D000184700003C000020002203098B422CD36A
:1001E000030A8B4211D300239C464EE003460B4387
:1001F0003CD4002243088B4231D303098B421CD3E9
:10020000030A8B4201D394463FE0C3098B4201D3DA
:10021000CB01C01A524183098B4201D38B01C01A12
:10022000524143098B4201D34B01C01A5241030989
:100230008B4201D30B01C01A5241C3088B4201D338
:10024000CB00C01A524183088B4201D38B00C01AE5
:10025000524143088B4201D34B00C01A5241411A0C
:1002600000D201465241104670475DE0CA0F00D0EF
:100270004942031000D34042534000229C460309E8
:100280008B422DD3030A8B4212D3FC22890112BA6E
:10029000030A8B420CD3890192118B4208D3890146
:1002A00092118B4204D389013AD0921100E089095E
:1002B000C3098B4201D3CB01C01A524183098B423F
:1002C00001D38B01C01A524143098B4201D34B0128
:1002D000C01A524103098B4201D30B01C01A52418B
:1002E000C3088B4201D3CB00C01A524183088B4212
:1002F00001D38B00C01A5241D9D243088B4201D39B
:100300004B00C01A5241411A00D201466346524185
:100310005B10104601D34042002B00D54942704784
:1003200063465B1000D3404201B50020C046C04682
:1003300002BD7047704770470246C80FC00781432F
:100340004B0030B54B405B009B0D20D01923DB06E2
:10035000C91801231B05994220DB0324A4070425A7
:100360001346AB400BD3002B04D1EB0613409B008C
:10037000E34204D401246407002312195941FF23E6
:100380001B0599420BD2C9000143500F09E0CB0273
:1003900004D501430803024305D0054830BDFF21C1
:1003A000C905084330BD084607210905884330BD0B
:1003B0000000C07FF0B50C46871A9C410D46861A96
:1003C0009D4103D2C01BA141D21963410D0D1F0DE8
:1003D000C94EEC1BAE435CD07F057F0D0026002F7D
:1003E00051D02D05AC46A943DD020123ED0A1B05C2
:1003F0001D4320231B1B24D41746E74038187141A6
:100400002F46E740CC199D402818314661410C0D1C
:1004100027D161449A4013D50023401C5941520012
:100420000ED14008400001224B005205D34207D3B1
:1004300005204007C14201D5B04900E0B04930462F
:10044000F0BD6B00002A00D001229A181F23203C27
:100450001B1B01D5002302E0E540281871410C0D5B
:10046000D7D0012424050919C407CD07400849083D
:10047000E40F28436144002CD5D00024401C614186
:100480009A40D0D1CDE76A05520DD9D1C90FC9071D
:10049000D5E79C4D4E00002801D0012400E0002447
:1004A00034195F00002A01D0012600E00026BE19A1
:1004B000954FAC420CD8AE420AD8B44206D00125C2
:1004C0006D05EC42BCD010461946F0BD9942FCD0F7
:1004D00000203946F0BDF0B51FB40C460F46811A16
:1004E0009F412546861A9D4106D20125ED076F40A2
:1004F000401ABC4152187B41210D1E0D8D1BAC468C
:100500007D4D8D437ED075056D0D7CD00D05AE46BD
:10051000AC431B031B0B794D52429D412023664681
:100520009B1B14D31746F7403818002600907441DF
:1005300060462F460741E41900989D4028186641FF
:1005400016D4714671189A4025D5012320E09318DE
:100550002A466A415200002B00D0521C1E23203E26
:100560009B1B002B61DD3541EE1728186641E8D54D
:10057000001876415B1C9A4000D3401C4B05F318D1
:100580001524E34010D3002B52D071467118D30FBD
:10059000C01802D3491C05B0F0BD0123DB079A4205
:1005A000F9D140084000F6E701225205B21801D106
:1005B000002853D00123CC0ADB029943891E002A6C
:1005C00008D1020C03D0020C0004103902E00246EC
:1005D000002020390023550B05D112020823550BAA
:1005E00001D152010D23550C01D112011B1DD50C57
:1005F00001D192009B1C150D01D152005B1C2025DE
:10060000EE1A01E02CE022E00546F5401543984043
:10061000CA1AE10769181305C918002ABBDA0320B2
:1006200040070818C10FC9070FE071466118B2E70B
:10063000F10740080843711071444A000CD00123AF
:100640005B059A42A7D2C90FC9070020A3E7490555
:10065000490D26D1002001E00028F4D100219AE7BD
:10066000284D6600002801D0012100E0002171180A
:100670005F00002A01D0012600E00026BE19224FAB
:10068000A94210D8AE420ED8B14208D001256D055E
:10069000E94206D01946A802414010467BE79C4239
:1006A00001D0214677E70020394674E710B50C46A3
:1006B0005C4005D50124E4076340FFF70CFF10BD43
:1006C000FFF778FE10BD30B40C465C4004D5012421
:1006D000E407634030BC6DE630BCFCE670B5012435
:1006E000E40761400D465D4002D4FFF763FE70BD34
:1006F0006340FFF7F0FE70BDFF0700000000F0FF51
:100700000000F07F0000E0FF0000F87FF0B5F94D39
:100710000C091E092C402E402F468BB0A7437DD0DC
:10072000B543FCD0002E7AD0002CFCD00D465D40A5
:10073000ED0F2543AC1BFF25AD0464190894C502D9
:10074000440DC9022143500DDC0204430120C007BF
:1007500001430443D2020191200C110C00958C46F8
:10076000010423468B430A9161460904E24D8A4302
:100770000991010A7D4449198039097805464D439C
:1007800001266D18F605751B6943C90C640B891C9D
:100790004C436418B5012C1B250C2E04B4434C4368
:1007A0004D43210C691889090591009DE90701D085
:1007B0000121C90704912C4601996708CD072F43F1
:1007C0004C08059DE10B4D432D0C294666467543AB
:1007D00002950D4645432E46029D7D1BB441009572
:1007E0000D465D4301942C0C2F040D465543AE4637
:1007F0002D0C3D43029503947546049C2D04641B07
:10080000049406D2029C039D641C00267541039546
:10081000029401AC70CC009F7D1B01E03EE162E1DF
:10082000B44109040095079101940599A408614316
:10083000090C0C464443650BE7040C4666467443BA
:10084000A646640B3C43039502947446049DE4045D
:100850002C1B049406D2029C039D641C0026754147
:100860000395029401AC70CC009F7D1BB4410194B0
:100870000C465C430095650FE7000C465443A646C2
:10088000640F3C43039502947446049DE4002C1BC2
:10089000049406D2029C039D641C002675410395B6
:1008A000029401AC70CC009F7D1BB441AE09AF0631
:1008B000049DC900AD092F43049DA406AD0604950F
:1008C000079D344369180791059DE10B4D432D0C9D
:1008D00029466646754302950D4645432E46029DC0
:1008E0007D1BB44100950D465D4301942C0C2F04F3
:1008F0000D465543AE462D0C3D4302950394754677
:10090000049C2D04641B049406D2029C039D641C69
:10091000002675410395029401AC70CC009F7D1BAD
:10092000B44101948C050694079C890A61180095CE
:100930000791019C0599A4086143090C0D464543A4
:10094000680BEF040D46644665436C0B3C43049F03
:10095000ED047D1BAC4602D20025641C6841009E5C
:10096000019D371B85410846584301950C46460FAB
:10097000C5005443600F28436546E4002C1B02D297
:100980000025401C6E41019D3F1AB5412846BD0916
:10099000800628438446A009BF064E020699A40695
:1009A00076180743079D002068410A99079019436C
:1009B0000020099B00906046FF1913434041E20F5D
:1009C00064003A43A4460446D71A8C41A04203D996
:1009D0000120009020463A46C70F941840416246D5
:1009E000D20F2243644664000494009CBE46640017
:1009F000D71AA446044602978C417746002F01D1AE
:100A0000A04204D96046401C8446029A2046C40F86
:100A1000A64694184041049A0546D20F22436446E4
:100A20006400D31A8D417146002901D1A84202D930
:100A300028461A46641C10430122002800D01643A1
:100A400061020020079B891904465C410223002CA7
:100A500002DB491813466441089DCE0A2D145D1926
:100A60004B056705E10A2C050D1908993E43C90796
:100A70006940002B08D0934006D30022761C5141D8
:100A8000002B01D1760876001C4A002D43DB15426D
:100A900041D0AA433FD030460BB0F0BD06180D46FA
:100AA0004D41174C7642AC411AD395181C465C4117
:100AB000134A6D42A24113D3012252054C00D44285
:100AC0000AD15C00D4420BD04B4002D592021143B4
:100AD000E2E749004908DFE75940C90FC90718E0B4
:100AE00000200849D8E7054801420DD10342F7D05C
:100AF000F2E700000000FF07E05E00000000F07F6A
:100B00000000E0FF0000F87F114859400143C01287
:100B100041400020C0E70123089A9B069A4205DC69
:100B2000032252078918C90FC907B5E705225207E2
:100B30008918074A1143D2125140ADE770B51546E6
:100B40001C4602460B4628462146FFF7DFFD70BDD6
:100B5000FFFFFF7F0346CA02400D10B510430A1580
:100B600004D00124E4072043002A05DB0A4CA21A22
:100B700004D4D040FF2A00DD002010BD4A00002B25
:100B800001D0012000E00020101801225205D042BF
:100B9000F2D8C817C04310BD1E0400001F22030C6A
:100BA00002D10F22000402D0030E03D004E0002083
:100BB000014670470002083A030F01D10001121FDD
:100BC000830F01D18000921E002801DB4000521EDD
:100BD000120551184205C012411810467047C10F46
:100BE000C90700D04042012292071143D6E70121F4
:100BF0008907D3E7F0B58B4C0F09254689B0BD4373
:100C00007BD01D092646AE43FAD00E465E402740F3
:100C1000F60F3E43254071D024012142FBD0FF2432
:100C2000AD19A4042D1B039501252D05DB02DB0A5C
:100C3000C9022B43C90A29431E010901040F130FDE
:100C4000050121431701880B820391432D098C462E
:100C5000A90B1E438A039543B30B9A0396433F099E
:100C6000BA0B9403A74302962E467E430497B646DA
:100C70004E19D7190C460196544305977E43371BEE
:100C80007646BF1B3601B646BE0B36190096764631
:100C9000BC043719009C01D3641C00946400002F2D
:100CA00001D001263443029E049F754366467E436D
:100CB0000496760034196E0034190094029C019E4B
:100CC0001C196643751BAE46069465464519059C7E
:100CD00005956C43594375460891691A0191049E24
:100CE00001465143A41B0491611A009C0791E1063F
:100CF00005D061090122114302E072E06EE0610952
:100D0000089D00272C0A2D066918049D7C412A0A9B
:100D10002D066918019D6241AC0DAD026D1854415C
:100D2000079A910D920255196141029A64465843FF
:100D30005443069B059A5A43121A131B9A0E9B01A1
:100D40005B187A41010B0005C3185141220A2006A5
:100D500044195A419A4200D2491C01204002814262
:100D600003D315230226F64302E014230326F64399
:100D70002020C51AA9401746AF40DA400A43204652
:100D80000399D8400914731819055118039A384368
:100D9000D2075140AC4009D00122944006D3002232
:100DA000401C5141002C01D1400840001E4A934292
:100DB00012D3012203989206904207DB05204007D8
:100DC00009181A480143C012414004E003204007BB
:100DD0000818C10FC907002009B0F0BD0020F107B5
:100DE000FAE705180C464C4111486D42A04115D355
:100DF00094181A465A410E48644290410ED301207D
:100E00004A004005824209D35A00824206D3594023
:100E1000C90F084AC90700201143DDE70020064931
:100E2000DAE700000000FF07FE070000FFFFFF7F7A
:100E30000000E0FF0000F07F0000F87F0121C905FD
:100E40000123411842001B06D3185B0E0AD0C110C3
:100E50000722D206891840075242D14201D55200DA
:100E600089187047090208D50146002A03D0C10F2E
:100E7000C9070020704710467047420202D0002088
:100E800002497047072109050143F4E70000F87F94
:100E9000F0B5FF252D04C609C209FF2704462E40E0
:100EA0000137CB093E4348402A402B400746002AE1
:100EB0006BD0002B69D0AA4267D0AB4265D0002826
:100EC00000DA32460125ED0529432C4309022002B0
:100ED000090AD21A4B0C7F24E31A434C000A7C44C3
:100EE000E35C7D242404121914145B00A2188842C8
:100EF00001D3521C00E0400049420C465C432411DF
:100F00005C43DB016415E318040A5C43C502200D51
:100F10000C4644436419250A5D432303EC0C0D463B
:100F2000654300030019EB184C42A34201D35B1840
:100F3000401CD4052018002B07D05B00C91804D32F
:100F4000401C002901D1400840003F2189048A4209
:100F500009D3002A08DC1106090F04D00321490730
:100F60004018C00FC007F0BD0122410012068918C9
:100F70007F2252069142F6D205214907C84201D587
:100F80009010F0BDFF20C005F0BD002F00DA324602
:100F90001648AA4207D2AB4205D21902090E17D051
:100FA000F80FC007F0BDFF2563002D06AB42F9D84E
:100FB0004900A942F6D8AB4201D1A942F2D0A942D8
:100FC00001D1002101E061004908D0050843F0BDCE
:100FD0001102090EFBD0FF200243D005F0BD0A46E6
:100FE0000146104654E70000F65700000000C07F9D
:100FF00010B501469E240002CA15A307002A02D09C
:101000001843002A04DBA21A002A0CDDD04010BDD0
:101010001206120E01D140004008A21A03D4D0409B
:1010200040420028F3DDFF2248001206904201D919
:10103000002010BDC817C043584010BD0102C215A2
:1010400004D00123DB071943002A0ADB9E239A1AE6
:1010500002D40846D0407047FF2241001206914258
:1010600001D900207047C017C04370471F22030CEE
:1010700002D10F2200041CD0030E01D10002083A55
:10108000030F01D10001121F830F01D18000921EB6
:10109000002801DB4000521ED205511802125118DF
:1010A0001922904004D3491C002801D14908490065
:1010B00008467047C10FC90700D04042012292077D
:1010C0001143D3E701218907D0E77047084B70B57A
:1010D0000D467B4400F013F80446284600F022F841
:1010E000002802D00020C04370BD204670BD000023
:1010F0002731000001694A1C02610878704700B579
:101100008FB0029100210591054901937944039123
:1011100011460490684600F028F80FB000BD0000AA
:10112000E5FFFFFFC068802108407047754600F06A
:1011300037F8AE46050069465346C008C0008546EC
:1011400018B020B5FFF722F860BC00274908B64662
:101150000026C0C5C0C5C0C5C0C5C0C5C0C5C0C5C6
:10116000C0C5403D49008D467047F8B5064600248D
:101170004768806800903046F56803E00099B847FA
:10118000641C3046A8470028F8D12046F8BD10B5A9
:101190000446C046C0462046FEF7DDFF10BD0000F5
:1011A00000487047B40600200146002901DA484291
:1011B00070470846FCE7000002480068401C0149EF
:1011C00008607047A000002008B50E480078401C59
:1011D0000C4908700878C10F091849104900411AD4
:1011E00007D00020C82302460146009004F094FD79
:1011F00006E00020034602460146009004F08CFD04
:1012000008BD0000C80000207047000010B504466B
:10121000204602F0A1FB2046002809DB00BF00BFEA
:10122000C206D20E01219140044A116000BF00BFE6
:1012300000BF0321204602F04FFC10BD00E100E09A
:10124000FFB504461546A0020D4E8319022C02DD9F
:10125000042004B0F0BDA6010A4FF6198F000398D0
:10126000F0515A6D002D03D001208840024304E064
:10127000012088401646864332465A650020E8E73A
:1012800000300040E805002070B50646301FC4B2AB
:10129000A0025049451888154059C007C00F0028C2
:1012A0000DD0A0014C490858002803D0A1014A4A9A
:1012B000505880470121C943FF2005304151FF208C
:1012C000013040598007C00F00280FD0A0014249CB
:1012D00040184068002804D0A1013F4A8918486896
:1012E00080470221C943FF2005304151FF200130D2
:1012F00040594007C00F00280FD0A00136494018C0
:101300008068002804D0A101334A89188868804782
:101310000421C943FF2005304151FF2001304059CD
:101320000007C00F00280FD0A0012B494018C0684B
:10133000002804D0A101284A8918C86880470821DC
:10134000C943FF2005304151FF200130405940067C
:10135000C00F00280FD0A0011F4940188069002845
:1013600004D0A1011C4A8918886980474021C943DB
:10137000FF2005304151FF20013040590006C00FC9
:1013800000280FD0A00114494018C069002804D0DB
:10139000A101114A8918C86980478021C943FF20EB
:1013A00005304151FF2001304059C005C00F0028D1
:1013B0000ED0A00108494018006A002804D0A101FD
:1013C000054A8918086A80470449FF2005304151C1
:1013D00070BD000000300040E8050020FFFEFFFF68
:1013E000F8B506460C46B0021D494518022E01DC30
:1013F000002C01D10420F8BD2078052801DD04204F
:10140000F9E7286D0E218843217849000E2211400A
:1014100008432865286DFF2101318843617809025E
:10142000FF220132114008432865286D702188434E
:10143000A17809017022114008432865002706E0C1
:101440000020B101074A8918BA0088507F1C102F6C
:10145000F6DB3146123148B2FFF7D8FE0020CAE76A
:1014600000300040E805002030B50446A0020D4DD4
:101470004319022C01DD042030BD002901D11A617D
:101480000DE0012901D15A6109E0022901D19A61D7
:1014900005E0032901D1DA6101E00420ECE7002036
:1014A000EAE700000030004010B502469002044C0C
:1014B0000319022A01DD042010BD59600020FBE75A
:1014C0000030004001468802064BC218022901DDA7
:1014D00004207047106D40084000401C106500203B
:1014E000F7E700000030004001468802054BC218B3
:1014F000022901DD04207047106D4008400010658E
:101500000020F8E70030004010B502460020002A15
:1015100004D0012A0BD0022A1DD111E0104B1B6808
:101520001B0C1B048CB223430D4C236015E00C4BA9
:101530001B6A1B0C1B048CB22343094C23620CE076
:10154000074B40331B681B0C1B048CB22343044C19
:101550004034236001E0012000BF00BF10BD000047
:10156000000C004001460020002904D0012909D0C8
:10157000022917D10DE00D4A5269520852000B4B57
:101580005A6111E0094A526B52085200074B5A63E4
:101590000AE0064A4032526952085200034B403377
:1015A0005A6101E0012000BF00BF7047000C0040FD
:1015B00010B502460020002A04D0012A0BD0022ACE
:1015C0001DD111E0104B5B681B0C1B048CB2234334
:1015D0000D4C636015E00C4B5B6A1B0C1B048CB25A
:1015E0002343094C63620CE0074B40335B681B0CE0
:1015F0001B048CB22343044C4034636001E001209F
:1016000000BF00BF10BD0000000C004001460020DC
:10161000002904D001290BD002291DD111E0104A64
:10162000D26801239B029A43D2180D4BDA6015E071
:101630000B4AD26A01239B029A43D218084BDA6202
:101640000CE0074A4032D26801239B029A43D21829
:10165000034B4033DA6001E0012000BF00BF704758
:10166000000C004001460020002904D0012907D0C9
:10167000022910D109E00A4A1269D007C00F0CE014
:10168000074A126BD007C00F07E0054A40321269C3
:10169000D007C00F01E0002000BF00BF704700006E
:1016A000000C004030B502460020002A04D0012A78
:1016B0004AD0022A7ED191E0724BDB680124640299
:1016C000A3430C78640201256D022C4023436D4C2A
:1016D000E3602346DB68A415A3434C7824026D1015
:1016E0002C402343674CE3602346DB687024A3430C
:1016F0008C78240170252C402343624CE360234600
:10170000DB680824A343CC78E40008252C4023435D
:101710005C4CE3602346DB680424A3430C79A400FB
:1017200004252C402343574CE3602346DB68022406
:10173000A3434C79640002252C402343514CE360C1
:10174000514C8B6823609AE04E4BDB6A01246402A3
:10175000A3430C78640201256D022C402343494CBD
:10176000E3622346DB6AA415A3434C7824026D1080
:101770002C402343434CE3622346DB6A7024A3439B
:101780008C78240170252C4023433E4CE362234691
:10179000DB6A0824A343CC78E40008252C402343CB
:1017A000384CE3622346DB6A0424A3430C79A4008B
:1017B000042500E061E02C402343324CE3622346E1
:1017C000DB6A0224A3434C79640002252C402343A6
:1017D0002C4CE3622D4CCB68236050E0294B403306
:1017E000DB6801246402A3430C78640201256D02C6
:1017F0002C402343234C4034E3602346DB68A4158C
:10180000A3434C7824026D102C4023431D4C4034DC
:10181000E3602346DB687024A3438C7824017025A1
:101820002C402343174C4034E3602346DB680824F4
:10183000A343CC78E40008252C402343114C4034CA
:10184000E3602346DB680424A3430C79A400042549
:101850002C4023430B4C4034E3602346DB680224D6
:10186000A3434C79640002252C402343054C4034AB
:10187000E360074C0B69236001E0012000BF00BF5B
:1018800030BD0000000C00406C0000207000002003
:101890007400002001460020002904D001290AD04C
:1018A00002291AD10FE00F4AD26852085200521C86
:1018B0000C4BDA6013E00B4AD26A52085200521CF9
:1018C000084BDA620BE0074A4032D26852085200F5
:1018D000521C044B4033DA6001E0012000BF00BF1E
:1018E00070470000000C004001460020002904D091
:1018F000012909D0022917D10DE00D4AD2685208FA
:1019000052000B4BDA6011E0094AD26A52085200C9
:10191000074BDA620AE0064A4032D26852085200A7
:10192000034B4033DA6001E0012000BF00BF704785
:10193000000C004008B5002168460170012141708B
:10194000817000F0F1F808BD02480349886003483F
:10195000886070475A5A000000200040A5A500008A
:10196000034800680F21C902884301490860704795
:101970000020004070B505460C460026FFF7E4FF46
:10198000002C01D0012000E000200446002D34D0BE
:10199000012D0CD0022D3AD1204800680421884343
:1019A000A1000422114008431C49086033E01C4890
:1019B000C06802218843610002221140084318498F
:1019C000C8600846C06804218843A1000422114071
:1019D00008431349C86011480069000900010F302D
:1019E0000E4908610846006802218843610002220E
:1019F00011400843094908600DE0084800684008A4
:101A00004000E107C90F08430449086003E0FFF7FD
:101A1000A7FF042600BF00BF304670BD0020004075
:101A2000000D024001460020002904D0012907D002
:101A300002290FD109E0094AD2681205D00F0AE045
:101A4000064A12695206D00F05E0044A5269D204D0
:101A5000D00F00E000BF00BF704700000020004032
:101A60001EB50020002120A31B6802931F4C18CC38
:101A7000019400931E4B1B689B069A0F002A04D00A
:101A8000012A23D0022A23D116E0194BDB68032454
:101A9000640223405B0A02ACE05C164B5843164BD1
:101AA000984208D1154B5988114BDB685B055B0DDB
:101AB0008B4200D112480DE00D4B5B69012464029A
:101AC00023405B0A9B006C46E05803E00D4801E0B0
:101AD000002000BF00BF064B1B68DB055C0F034600
:101AE000E34018461EBD00000408101844660000BC
:101AF0000020004040420F0000366E01000C100034
:101B0000408651010048E80110B50024FFF7A8FF06
:101B10000446044800684005810F2046C84004463A
:101B2000204610BD0020004010B50446062000F0FD
:101B300087F8207800F05EF9607800F005F8A0786A
:101B400000F038F8002010BD10B50446102C14D059
:101B500008DC012C0DD0022C0CD0042C0BD0082C4E
:101B600021D109E0202C09D0402C08D0802C1AD19A
:101B700006E000BF00BF00BF00BF00BF00BF00BF46
:101B8000FFF7E2FE204600F099FFC4B20848006863
:101B9000FF21C1318843A101FF22C1321140084316
:101BA0000349086001E0042010BD00BF0020FBE7EE
:101BB0000020004010B50446012C06D0022C05D0B0
:101BC000042C04D0082C16D102E000BF00BF00BFD7
:101BD000FFF7BAFE204600F071FFC4B20848006863
:101BE0000321490288436102032252021140084343
:101BF0000349086001E0042010BD00BF0020FBE79E
:101C00000020004010B502460020002901D0012329
:101C100000E000231946002907D0084B1B6A012465
:101C200094402343054C236206E0044B1B6A0124C5
:101C30009440A343014C236210BD000000200040EB
:101C400010B5014600208A1E130001F06AFE05044B
:101C5000101C28344000204B1B895A05520D1F4B85
:101C6000DB68DB0ADB0213431C4CE36031E01A4BF8
:101C7000DB885A05520D194BDB68DB0ADB02134384
:101C8000164CE36025E0144B9B885A05520D134B0C
:101C9000DB68DB0ADB021343104CE36019E00E4BF8
:101CA0005B885A05520D0D4BDB68DB0ADB021343E0
:101CB0000A4CE3600DE0084B1B885A05520D074B98
:101CC000DB68DB0ADB021343044CE36001E0042021
:101CD00000BF00BF10BD0000000C1000002000403D
:101CE00001460020002906D001290CD0022915D078
:101CF000032927D11DE0154A526903239B029A4309
:101D0000124B5A6120E0114A526903239B029A4305
:101D100001239B02D2180D4B5A6115E00B4A526900
:101D200003239B029A430123DB02D218074B5A611B
:101D30000AE0064A526903239B029A43D218034BD6
:101D40005A6101E0042000BF00BF7047002000403E
:101D500070B504460025FFF7F7FD002C04D0012CD8
:101D600004D0022C0DD100E000BF00BF084800687D
:101D70003021884321013022114008430449086082
:101D800003E0FFF7EDFD042500BF00BF284670BD4E
:101D90000020004001460020032906D004290BD072
:101DA000052911D006291FD116E0114A12693023E6
:101DB0009A430F4B1A6119E00D4A126930239A4376
:101DC00010320B4B1A6111E0094A126930239A4311
:101DD0002032074B1A6109E0054A126930239A4301
:101DE0003032034B1A6101E0042000BF00BF70478E
:101DF0000020004070B505462C4622480068800649
:101E0000860F002C04D0012C03D0022C09D104E051
:101E100009E00620FFF7BEFF05E00320FFF760FFA3
:101E200001E0042070BD00BF17481849C862184877
:101E3000C862012C01D0012E07D100BF1348006AEF
:101E400004218843001D1149086201212046FFF743
:101E500091FD00BF2046FFF7E5FD0028FAD020469F
:101E6000FFF776FF00213046FFF784FD012C05D0F7
:101E70000648006A042188430449086201F074FAA4
:101E80000020CFE7002000405A5A00000000024026
:101E9000A5A5000010B50446002C01D1042010BDFA
:101EA0002648006A01210906884340182349086230
:101EB0002078002804D0012818D002281FD10AE079
:101EC0001E48406B0321890688430121C90640183A
:101ED0001A49486315E01948406B03218906884375
:101EE000012189064018154948630AE01348406BF0
:101EF00003218906884340181049486301E0042003
:101F0000CDE700BF0D48406B012149068843617849
:101F10004906012252061140084308494863606897
:101F2000401E074948610321081F01F05DFD0020A4
:101F300003498861012008610020B0E700200040CB
:101F400000E000E0012189074968102291439206D0
:101F500051601146086000BF01218907096989079E
:101F6000C90F0029F8D0012189074969022291434C
:101F7000520751617047000038B5002400200090DE
:101F80002748C068202188432549C8602548406902
:101F9000C008C000C01C23494861214800682021B6
:101FA00088431F490860FFF7AFFD044660004B21DE
:101FB000C901FEF711F9400901210904081A00902E
:101FC0001948C068042188431749C8600846C0689A
:101FD00002218843801C1449C8600846C068082153
:101FE000884308301049C86000980860009848602D
:101FF0000846C06840084000401CC86001208007B7
:1020000040684915884340184905486008464068BB
:10201000C0218843403001218907486038BD000055
:10202000C00D0240C00C0240000C004010B5044638
:1020300001480068804710BDCC000020F8B5054677
:102040000F4616466CB22046002805DBC206D20EAB
:10205000012191401A4A116000BF3946204601F023
:1020600087FC012E0ED12046002809DB00BF00BFEF
:10207000C206D20E01219140124A116000BF00BF7A
:1020800000BF1BE02046002816DBC206D20E01214D
:1020900091400C4A8032116000BF00BF00BFBFF307
:1020A0004F8F00BF00BF00BF00BF00BF00BFBFF326
:1020B0006F8F00BF00BF00BF00BF00BFF8BD0000B2
:1020C00080E200E000E100E000B5002000F0A8F8A8
:1020D000012805D1002000F00FF8002000F04CF896
:1020E000012000F09DF8012804D100F005F801203E
:1020F00000F042F800BD000001460120002902D096
:1021000001292FD116E0194AD26A120C1204184B79
:10211000D218164BDA621A46D26A120C1204154B08
:10212000D218124BDA621A46926A520852009A6228
:10213000002019E00D4AD26A120C12040C4BD2187E
:102140000A4BDA621A46D26A120C1204094BD218F0
:10215000064BDA621A46926A02239A43034B9A624A
:10216000002001E0012000BF00BF704700000240D6
:102170005A5A0000A5A5000010B50146012000290B
:1021800002D0012942D120E0224AD26A120C120464
:10219000214BD2181F4BDA621A46D26A120C120473
:1021A0001E4BD2181B4BDA621B6A5B069B0F022484
:1021B000A3435B01602423401A46164B1B6AA343CA
:1021C0001343144C2362002022E0124AD26A120CFC
:1021D0001204114BD2180F4BDA621A46D26A120C53
:1021E00012040E4BD2180B4BDA621B6A5B069B0F74
:1021F0005B085B005B01602423401A46054B1B6AA9
:10220000A3431343034C2362002001E0012000BFDD
:1022100000BF10BD000002405A5A0000A5A50000F2
:1022200001460020002902D001290AD104E0074A12
:10223000526AD007C00F06E0044A526A9207D00FD4
:1022400001E0002000BF00BF704700000000024016
:1022500010B502460020032901DD042010BD854B86
:10226000DB6A1B0C1B04844C1B19824CE362234663
:10227000DB6A1B0C1B04814C1B197E4CE36223465A
:102280001B685B0A5B0220248C40E405E40D2343B9
:10229000784C23602346DB6A1B0C1B04764C1B190D
:1022A000744CE3622346DB6A1B0C1B04734C1B1942
:1022B000704CE36223465B681B0A1B0217248C40A8
:1022C000E4B223436B4C63602346DB6A1B0C1B04A4
:1022D000694C1B19674CE3622346DB6A1B0C1B0429
:1022E000664C1B19634CE36223469B681B0A1B0266
:1022F0001B248C40E4B223435E4CA3602346DB6A7C
:102300001B0C1B045C4C1B195A4CE3622346DB6A12
:102310001B0C1B04594C1B19564CE3622346DB680B
:102320009B0C9B04564C8C40A403A40B2343514CA0
:10233000E3602346DB6A1B0C1B044F4C1B194D4CFE
:10234000E3622346DB6A1B0C1B044C4C1B19494CF3
:10235000E36223461B695B0D5B054A4C8C40E4023B
:10236000E40A2343434C23612346DB6A1B0C1B0412
:10237000414C1B193F4CE3622346DB6A1B0C1B04D8
:102380003E4C1B193B4CE36223465B691B0B1B0352
:1023900018248C402405240D2343364C63612346C6
:1023A000DB6A1B0C1B04344C1B19324CE3622346C2
:1023B000DB6A1B0C1B04314C1B192E4CE3622346B9
:1023C0009B691B0B1B03F0248C402405240D234325
:1023D000284CA3612346DB6A1B0C1B04264C1B19EB
:1023E000244CE3622346DB6A1B0C1B04234C1B19A1
:1023F000204CE3622346DB695B0B5B037D24E40036
:102400008C40E404E40C23431A4CE361032917D104
:102410002346DB6A1B0C1B04174C1B19154CE3628B
:102420002346DB6A1B0C1B04144C1B19114CE36282
:1024300023461B6A0424A3431B1D0E4C236215E094
:102440000C4BDB6A1B0C1B040B4C1B19094CE36285
:102450002346DB6A1B0C1B04084C1B19054CE3626A
:1024600023461B6A0424A343024C2362064B1A60D2
:1024700000BFF3E6000002405A5A0000A5A5000084
:1024800050460000E0220200CC000020014600205F
:102490002C4A914201D9042070472B4AD26A120C6F
:1024A00012042A4BD218284BDA621A46D26A120C4E
:1024B0001204274BD218244BDA621A46126B120C04
:1024C0001204244BD218204B1A6300BF1E4A126A12
:1024D000D206D20F002AF9D11B4AD26A120C12047A
:1024E0001A4BD218184BDA621A46D26A120C12042E
:1024F000174BD218144BDA621A46126A92089200ED
:10250000921C1A6200220A7000BF0F4A126AD20699
:10251000D20F002AF9D10C4AD26A120C12040B4BCA
:10252000D218094BDA621A46D26A120C1204084B0E
:10253000D218054BDA621A46126B120C12041A6397
:1025400000BFA9E7FF7F0000000002405A5A0000C8
:10255000A5A50000FFFF000010B5024600202C4B8F
:102560009A4201D9042010BD2A4BDB6A1B0C1B04C4
:10257000294C1B19274CE3622346DB6A1B0C1B0406
:10258000264C1B19234CE36223461B6B1B0C1B04BC
:10259000234C1B191F4C236300BF1E4B1B6ADB0619
:1025A000DB0F002BF9D11B4BDB6A1B0C1B041A4CF5
:1025B0001B19184CE3622346DB6A1B0C1B04174CE7
:1025C0001B19144CE36223461B6A9B089B005B1C8F
:1025D0002362117000BF0F4B1B6ADB06DB0F002B61
:1025E000F9D10C4BDB6A1B0C1B040B4C1B19094C5F
:1025F000E3622346DB6A1B0C1B04084C1B19054CC9
:10260000E36223461B6B1B0C1B04236300BFAAE77A
:10261000FF7F0000000002405A5A0000A5A50000FC
:10262000FFFF000010B5024600202E4B9A4203D84F
:10263000D307DB0F002B01D0042010BD2A4BDB6A2F
:102640001B0C1B04294C1B19274CE3622346DB6A35
:102650001B0C1B04264C1B19234CE36223461B6BEB
:102660001B0C1B04234C1B191F4C236300BF1E4B68
:102670001B6ADB06DB0F002BF9D11B4BDB6A1B0C43
:102680001B041A4C1B19184CE3622346DB6A1B0C13
:102690001B04174C1B19144CE36223461B6A9B084E
:1026A0009B005B1C2362118000BF0F4B1B6ADB0683
:1026B000DB0F002BF9D10C4BDB6A1B0C1B040B4C02
:1026C0001B19094CE3622346DB6A1B0C1B04084CF4
:1026D0001B19054CE36223461B6B1B0C1B04236375
:1026E00000BFAAE7FF7F0000000002405A5A000026
:1026F000A5A50000FFFF00000146087870470146CD
:102700000888704710B501221146002000F030F80B
:1027100001220221002000F02BF8012204211046A2
:1027200000F026F801220521104600F021F80122D0
:102730000321022000F01CF801220721022000F0F2
:1027400017F801221146032000F012F8012204219B
:10275000032000F00DF810BD02469001034BC01895
:102760004068C840C007C00F70470000000D02401D
:1027700070B504460D4616462948006A012109072E
:10278000884340182649086200222946204600F066
:10279000FFF80021A001234A8018001FAA008150E1
:1027A000002E0DD0A0011F49FC3140180068012106
:1027B000A9400843A1011B4AFC32891808600CE0BB
:1027C000A0011849FC31401800680121A940884344
:1027D000A101144AFC3289180860A0011149FC319A
:1027E0004018006A0121A9408843A1010D4AFC322A
:1027F00089180862A00111464018406A0121A940C9
:102800008843A10189184862A00111464018C16A95
:102810000120A8408143A0018018C162002070BD42
:1028200000200040040C0240F0B504460D46164658
:102830001F465548006A012109078843401852493C
:10284000086200222946204600F0A2F80021A001DB
:102850004E4A8018001FAA008150002E0DD0A00102
:102860004A49FC31401800680121A9400843A101F0
:10287000464AFC32891808600CE0A0014349FC314B
:10288000401800680121A9408843A1013F4AFC3259
:1028900089180860079800280DD0A0013B49FC3139
:1028A0004018C0690121A9400843A101374AFC3200
:1028B0008918C8610CE0A0013449FC314018C06996
:1028C0000121A9408843A101304AFC328918C8611E
:1028D000002F0DD0A0012D49FC314018006A0121C4
:1028E000A9400843A101294AFC32891808620CE07A
:1028F000A0012649FC314018006A0121A940884303
:10290000A101224AFC3289180862059800280DD0DE
:10291000A0011E49FC314018406A0121A94008432A
:10292000A1011A4AFC32891848620CE0A00117493B
:10293000FC314018406A0121A9408843A101134A93
:10294000FC3289184862069800280DD0A0010F4972
:10295000FC314018C06A0121A9400843A1010B4A7B
:10296000FC328918C8620CE0A0010849FC3140180B
:10297000C06A0121A9408843A101044AFC32891898
:10298000C8620020F0BD000000200040040C02409E
:1029900030B50346002A0BD098010C4C0019C068D2
:1029A00001248C4020439C01084D6419E0600AE03A
:1029B0009801064C0019C06801248C40A0439C017A
:1029C000024D6419E060002030BD0000000D02409F
:1029D00008B50020009000BF00980028FCD008BD7A
:1029E00010B50020C046C04610BD10B50120C0463D
:1029F000C04610BD10B50220C046C04610BD10B57F
:102A00000320C046C04610BD10B5002000F07CFE7B
:102A100010BD10B5012000F077FE10BD10B50020EC
:102A2000C046C04610BD10B50020C046C04610BD0F
:102A300010B5002000F0EEFC10BD10B5012000F034
:102A4000E9FC10BD10B5022000F0E4FC10BD10B58B
:102A50000420FEF719FC10BD10B50520FEF714FC8C
:102A600010BD10B50620FEF70FFC10BD10B50020FC
:102A700000F068FA10BD10B50020C046C04610BD79
:102A800010B50020C046C04610BD10B50020C0469D
:102A9000C04610BD10B50120C046C04610BD10B5DF
:102AA0000020C046C04610BD10B50020FFF7BEFA9A
:102AB00010BD10B50020C046C04610BD0146002222
:102AC000002900D1704701E0521C49080129FBD8B8
:102AD0001046F7E700B5002000F00AFA012802D1FD
:102AE000002000F0CDF9012000F002FA012801D108
:102AF00000F0C6F9022000F0FBF9012802D1022003
:102B000000F0BEF9032000F0F3F9012802D1032000
:102B100000F0B6F9042000F0EBF9012802D10420FE
:102B200000F0AEF900BD000010B502460120130010
:102B300000F0F7FE05040E18222C38001B4B5B6AD0
:102B40001B0A1B02CCB22343184C636200202BE00B
:102B5000164BDB6A1B0A1B02CCB22343134CE36205
:102B6000002021E0114B5B6B1B0A1B02CCB22343FC
:102B70000E4C6363002017E00C4BDB6B1B0A1B023F
:102B8000CCB22343094CE36300200DE0074B4033F4
:102B90005B681B0A1B02CCB22343044C40346360C5
:102BA000002001E0012000BF00BF10BD0010004068
:102BB00030B502460120130000F0B3FE0504488C36
:102BC000D0FDFC00AD4B1B694024A3430C78A4014D
:102BD00040252C402343A94C236123461B69202414
:102BE000A3434C78640120252C402343A34C23614C
:102BF00023461B691024A3438C78240110252C4004
:102C000023439E4C236123461B690824A343CC78AD
:102C1000E40008252C402343984C236123461B697C
:102C20000424A3430C79A40004252C402343934C93
:102C3000236123461B690224A3434C7964000225C7
:102C40002C4023438D4C2361002014E18B4B5B69A6
:102C50004024A3430C78A40140252C402343874CF7
:102C6000636123465B692024A3434C7864012025DB
:102C70002C402343814C636123465B691024A343AA
:102C80008C78240110252C4023437C4C636123461F
:102C90005B690824A343CC78E40008252C40234337
:102CA000764C636123465B690424A3430C79A4003A
:102CB00004252C402343714C636123465B69022445
:102CC000A3434C79640002252C4023436B4C636181
:102CD0000020D0E0694B9B694024A3430C78A401F9
:102CE00040252C402343654CA36123469B69202447
:102CF000A3434C78640120252C4023435F4CA361FF
:102D000023469B691024A3438C78240110252C4072
:102D100023435A4CA36123469B690824A343CC78E0
:102D2000E40008252C402343544CA36123469B69AF
:102D30000424A3430C79A40004252C4023434F4CC6
:102D4000A36123469B690224A3434C7964000225B6
:102D50002C402343494CA36100208CE0474BDB69A6
:102D60004024A3430C78A40140252C402343434C2A
:102D7000E3612346DB692024A3434C7864012025CA
:102D80002C4023433D4CE3612346DB691024A343DD
:102D90008C78240110252C402343384CE3612346D2
:102DA000DB690824A343CC78E40008252C402343A6
:102DB000324C01E05DE018E0E3612346DB69042466
:102DC000A3430C79A40004252C4023432B4CE3613E
:102DD0002346DB690224A3434C79640002252C407E
:102DE0002343264CE361002045E0244B1B6A40242A
:102DF000A3430C78A40140252C4023431F4C23629D
:102E000023461B6A2024A3434C78640120252C40D0
:102E100023431A4C236223461B6A1024A3438C7855
:102E2000240110252C402343144C236223461B6AA3
:102E30000824A343CC78E40008252C4023430F4CFE
:102E4000236223461B6A0424A3430C79A4000425AF
:102E50002C402343094C236223461B6A0224A343CC
:102E60004C79640002252C402343044C236200204B
:102E700001E0012000BF00BF30BD00000010004095
:102E800000B5014601200B0000F04BFD05040C14B9
:102E90001C242C00154AD26852085200134BDA60E9
:102EA000002021E0114AD26802239A430F4BDA60D6
:102EB000002019E00D4AD26804239A430B4BDA60D4
:102EC000002011E0094AD26808239A43074BDA60D0
:102ED000002009E0054AD26810239A43034BDA60C8
:102EE000002001E0012000BF00BF00BD0010004035
:102EF00000B5014600200B0000F013FD0504090E8B
:102F000013181D000E4A1268D007C00F15E00C4AB6
:102F100012689207D00F10E0094A12685207D00FCA
:102F20000BE0074A12681207D00F06E0044A126845
:102F3000D206D00F01E0002000BF00BF00BD00009E
:102F40000010004010B5044601480068804710BDDD
:102F5000C000002010B501460120134A52688023AA
:102F60009A430B78DB01802423401A430E4B5A60AE
:102F70001A46526840239A434B789B0140242340D1
:102F80001A43094B5A601A4652680E239A438B78AB
:102F90005B000E2423401A43034B5A60034B4A68DC
:102FA0001A60002010BD000000100040C00000208A
:102FB000012004490968402291434031014A1160CF
:102FC00000207047001000400B4909680B4A126846
:102FD00091420FD008490A6809498A4202D3273929
:102FE000054A116004490968087803490968491CC1
:102FF000014A116070470000B0000020AC000020C2
:10300000E404002038B5CE48007801287ED1CD48B0
:103010000088CD490988884279D1CC4800780300DE
:1030200000F07FFC06F10480552AF0F1C8480068E2
:10303000012809D10020C64908600346024601461E
:10304000009002F069FE16E00120C149086001F01D
:1030500019FAC048008A80B2BE4C0090A489A3B27D
:10306000BC4C2489A2B2BB4CA488A1B2B94C248820
:10307000A0B202F051FE36E1B5480068012825D122
:10308000B3480079002821D1B1488068C830B049E0
:103090008860084680687D21C900884202DD0846B4
:1030A000AB49886001F0EEF9AA48008A80B2A94CC9
:1030B0000090A489A3B2A74C2489A2B2A54CA488ED
:1030C000A1B2A44C2488A0B202F026FE0BE1A048D5
:1030D0000068012825D19E480079002821D19C480C
:1030E0008068C8389A49886008468068642801DA90
:1030F0006420886001F0C6F99648008A80B2954C39
:103100000090A489A3B2934C248901E017E1EEE07A
:10311000A2B2904CA488A1B28E4C2488A0B202F036
:10312000FBFDE0E08A48006801286DD18A480078FC
:10313000401C89490870052187480078FDF756F83A
:103140000B0000F0EEFB0562041E3B576D000120F2
:103150007F4908710020087400217D484174817402
:10316000C1740175032141750E2181750821C17556
:1031700000210176032141760E2181760821C17656
:1031800052E0012072490871002008740021704843
:103190004174072181740821C17400210175032144
:1031A00041750E2181750821C17500210176032129
:1031B00041760E2181760821C17635E001206449EF
:1031C0000871002008740021614841740F21817446
:1031D0000021C1740175032141750E2181750821FB
:1031E000C17500210176032141760E2181760821E7
:1031F000C17619E00020564908717D20C000C860E2
:10320000886011E026E06DE023E00020504908715D
:10321000C8607D20C000886000204F49087003E02E
:1032200000204D49087000BF00BF01F02BF949484C
:10323000008A80B2474C0090A489A3B2454C2489EF
:10324000A2B2444CA488A1B2424C2488A0B202F09D
:1032500063FD48E03E480068012842D13C480079BF
:1032600000283ED13D480078401C3C4908700521AB
:103270003A480078FCF7BAFF0B0000F052FB051645
:1032800004090D121C007D20C0003149C86013E004
:1032900033482F49C8600FE0FF20F5302C49C86043
:1032A0000AE0FA202A49C86006E000202849C860E0
:1032B0002A49087000E000BF00BF01F0E3F825488C
:1032C000008A80B2234C0090A489A3B2214C2489A7
:1032D000A2B2204CA488A1B21E4C2488A0B202F055
:1032E0001BFD00E000BF00BF02F006FE21E01D480C
:1032F000007801281DD100201A49087002F07EFDD7
:103300000120FEF7F1F801F0BDF81248008A80B202
:10331000104C0090A489A3B20E4C2489A2B20D4C8B
:10332000A488A1B20B4C2488A0B202F0F5FC01F0F5
:1033300037F8642000F068FD00200149087038BDAE
:10334000790000200E0000207A0000207800002084
:10335000400100200C0100200C0000200D00002086
:10336000EE0200001000002010B5FEF779FB0149C5
:10337000086010BD000000201CB50220FEF760FCB4
:1033800001210020FEF7F6FAFFF7EEFF082168465C
:1033900000F02AFD01206946487003480190684604
:1033A000FEF778FD1CBD0000FFFFFF0010B50020F8
:1033B000FEF758F9012818D10020FEF7D3F80B4882
:1033C0000078002801D100F027FF08480078012884
:1033D0000BD10748008E074908700548808C000211
:1033E0000349098D08430449088010BD7900002075
:1033F000D0000020780000207A00002010B50220C4
:10340000FEF730F9012804D10220FEF7ABF801F0F5
:103410007DFD10BD10B50446002C04D0012C06D053
:10342000022C0CD107E007480068804708E00648F6
:103430000068804704E005480068804700E000BF5E
:1034400000BF10BD6C000020700000207400002040
:10345000F0B585B004460125A00006214843C91FE8
:10346000081A86B2154F164802900021684641702E
:103470008170C17001710121417169460020FEF720
:1034800011F9002800D000BF0020FEF76BF80020E3
:10349000FEF7BCF8012203210E20FEF7CFFD3146D6
:1034A0000020FEF731F839460020FEF781F80020B1
:1034B000FEF7F0F9284605B0F0BD0000FAFF000065
:1034C000AD330000F1B58CB0012006900C98FDF7EB
:1034D0008EFB0446224A234BFDF718F906460022CC
:1034E000214BFDF787FB0022204B01910090FDF757
:1034F000F5F803910290FDF72DFB80B205901C4872
:1035000004901C480B900021684641770721817781
:103510000021C17708A801700121417007A902208C
:10352000FEF7C0F8002801D0012006900220FEF727
:1035300019F80220FEF76AF8012203211020FEF795
:103540007DFD02200599FDF7DFFF02200499FEF7BB
:103550002FF80220FEF79EF906980DB0F0BD00008E
:103560007B14AE47E17AE43F00001440E0FFEF40F7
:10357000FAFF0000FD33000070B50546A81D44B2F7
:10358000204600F0DDF90321204600F069FA2046CC
:10359000002815DBC206D20E01219140094A1160B4
:1035A00000BF00BF00BFBFF34F8F00BF00BF00BF11
:1035B00000BF00BF00BFBFF36F8F00BF00BF00BFE1
:1035C00000BF70BD80E100E010B502460020002180
:1035D00000BF0BE014234B43064CE358934203D146
:1035E00014234B43181903E04B1CD9B20229F1D321
:1035F00000BF10BD4000002070B50546A81D44B2B4
:10360000204600F09DF90321204600F029FA2046CB
:10361000002809DB00BF00BFC206D20E0121914085
:10362000024A116000BF00BF00BF70BD00E100E0B2
:1036300070B506460D4600243046FFF7C5FF044628
:10364000002C01D1042070BD002D04D0012D09D023
:10365000022D15D10DE0606840690421884361683E
:1036600048610FE060684069400840006168486157
:1036700008E060684069022188436168486101E0B0
:103680000420E0E700BF0020DDE770B506460D46E8
:1036900000243046FFF798FF0446002C01D1042097
:1036A00070BD6068406810218843290110221140D4
:1036B0000843616848600020F2E770B506460D4691
:1036C00000243046FFF780FF0446002C01D104207F
:1036D00070BD002D02D0012D10D107E06068406858
:1036E00002218843801C6168486009E06068406886
:1036F00040084000401C6168486001E00420E7E7A2
:1037000000BF0020E4E7000070B50546002428460D
:10371000FFF75AFF0446002C00D170BD60680069B5
:103720004007C00F002809D000212846FFF780FF7E
:10373000E068002801D0E0688047EEE76068006933
:10374000C007C00F00280DD001212846FFF770FFE9
:103750002069002801D0206980470B490968C8B258
:1037600002F060FD606800698007C00F002808D083
:1037700002212846FFF75CFFA068002801D0A0685E
:10378000804700BFC9E7000000010040F8B50646C9
:103790000C46012700253046FFF716FF0546002D91
:1037A00001D10420F8BD002C01D10420FAE72178D2
:1037B000304600F07AF807466068002804D03046AA
:1037C000616800F08AF80746A068002808D0A06861
:1037D0004168E960A06881682961A0680068A86004
:1037E000207B012803D13046FFF706FF02E0304678
:1037F000FFF7C2FE00273846D4E770B506460C46F0
:1038000000253046FFF7E0FE0546002D01D10420DB
:1038100070BD02213046FFF70BFF6868046002208C
:1038200000F0F2FA02213046FFF702FF0020EFE736
:10383000F8B507460E46144600200090002538468D
:10384000FFF7C2FE0546002D01D0002C01D100205B
:10385000F8BD6868406801214902884361784902DF
:10386000012252021140084369684860207800280C
:1038700006D0012806D0022803D0032811D102E087
:1038800000BF0FE000BF626851016278521C7243B2
:103890001046FCF7A1FC01210904081A80B200902F
:1038A00000E000BF00BF0098D2E770B506460D46A5
:1038B00000243046FFF788FE0446002C01D1042086
:1038C00070BD60684068C0218843A901C0221140D2
:1038D0000843616848600020F2E770B506460C4670
:1038E00000253046FFF770FE0546002D01D104206B
:1038F00070BD002C13D0686840682021884321786F
:103900004901202211400843696848602078012855
:1039100005D1607869688860A0786968C86000200F
:10392000E6E730B47446641E2578641CAB4204D3C9
:10393000635D5B00E31830BC18471D46F8E70000E4
:10394000002805DBC206D20E01219140014A116018
:103950007047000080E200E0002805DBC206D20EBE
:1039600001219140014A11607047000080E200E0AF
:1039700010B5002819DB1A4A03231B02D21883084A
:103980009B00D2588307DC0EFF23A3409A438B078A
:103990001B0E8407E40EA3401A43114B0324240298
:1039A0001B198408A4001A5118E00E4A03071B0FC4
:1039B000083B9B089B00D2588307DC0EFF23A340E3
:1039C0009A438B071B0E8407E40EA3401A43054B52
:1039D0000407240F083CA408A4001A5110BD0000DD
:1039E00000E100E01CED00E010B5002819DB1A4AE8
:1039F00003231B02D21883089B00D2588307DC0ED6
:103A0000FF23A3409A438B071B0E8407E40EA340B9
:103A10001A43114B032424021B198408A4001A51D1
:103A200018E00E4A03071B0F083B9B089B00D25867
:103A30008307DC0EFF23A3409A438B071B0E8407EA
:103A4000E40EA3401A43054B0407240F083CA408C6
:103A5000A4001A5110BD000000E100E01CED00E0E0
:103A600010B5002819DB1A4A03231B02D218830859
:103A70009B00D2588307DC0EFF23A3409A438B0799
:103A80001B0E8407E40EA3401A43114B03242402A7
:103A90001B198408A4001A5118E00E4A03071B0FD3
:103AA000083B9B089B00D2588307DC0EFF23A340F2
:103AB0009A438B071B0E8407E40EA3401A43054B61
:103AC0000407240F083CA408A4001A5110BD0000EC
:103AD00000E100E01CED00E010B5002819DB1A4AF7
:103AE00003231B02D21883089B00D2588307DC0EE5
:103AF000FF23A3409A438B071B0E8407E40EA340C9
:103B00001A43114B032424021B198408A4001A51E0
:103B100018E00E4A03071B0F083B9B089B00D25876
:103B20008307DC0EFF23A3409A438B071B0E8407F9
:103B3000E40EA3401A43054B0407240F083CA408D5
:103B4000A4001A5110BD000000E100E01CED00E0EF
:103B500000BF7047F8B504460D4601210A20FEF764
:103B600051F80021684601700121417007218170E0
:103B700069462046FDF734FC2946182251437D2230
:103B8000D20051430846C917890D091889010D0C47
:103B900029462046FDF788FC002600273A46314694
:103BA0002046FDF761FC002C06D10E4B01220021BE
:103BB0002046FDF745FB10E0012C06D10A4B0122FF
:103BC00000212046FDF73CFB07E0022C05D1074B06
:103BD000012200212046FDF733FB2046FDF772FC51
:103BE000F8BD0000B9110000C91100000912000061
:103BF00010B50C221849881A01F089FD174802787F
:103C00001549DE310846D23801F081FD12481C38D2
:103C10000178142001F06CFC0F481C380179152044
:103C200001F098FC0C481C388168162001F0F2FC69
:103C300009481C38C168172001F0ECFC0C22064929
:103C4000182001F0B1FC054802780349DE31192043
:103C500001F0AAFC10BD00005C0100209D000020C6
:103C600001460020087800024A78104300028A7852
:103C700010430002CA78104370470000F0B587B0C7
:103C800004464449E01C085C049004980300FFF7D4
:103C900048FE0F090C0F124044487D6E7D7D7D7DEE
:103CA0007D717D0000F014FE71E001F005FE6EE014
:103CB00000F0D9FD6BE03749A01D085C364908705B
:103CC0000021032002F08AFB01F0EEFC0646002EE4
:103CD00006D102F0A3F8FA210120FFF73BFF17E01D
:103CE0000120FDF701FC00F0CDFB2C48008A80B2DA
:103CF00000902A48808983B22848008982B22748E8
:103D0000808881B22548008880B2019002F004F8D2
:103D10003DE001202249087039E001202149087066
:103D200035E01C49201D085C00020590601D095CFF
:103D30000598081880B20590002514E0A01D4019D0
:103D4000801C1449085C0702A01D4019C01C085CB7
:103D5000C01987B20919891D481900F025F8069085
:103D6000381D281885B205988542E7DB0FE0FFF77C
:103D70003FFF0CE00749A01D085C0390E01D085CB4
:103D800002900299039802F093FA00E000BF00BF8E
:103D900007B0F0BDBC030020B70000200C010020DC
:103DA000B5000020B6000020FEB5044626786778EE
:103DB000A0780502E078401985B2304600F00AFB91
:103DC000019001984000074940184078B84201D05E
:103DD0000020FEBD2A46211D304600F075F80090F7
:103DE0000098F6E74C66000010B50A460146002927
:103DF00000D110BD02E000230B70491C1346521E77
:103E0000002BF8D100BFF4E770B5054610E00020A4
:103E10000A4988617D21C90009480068FCF7DCF97E
:103E2000012109060C1A00BF04488069A042FBD892
:103E300028466D1E0028EAD170BD000000E000E0B9
:103E400000000020F8B505460E463146284601F030
:103E500023FC04460948846000F014FB0620FFF7A9
:103E600031FB02F049F82146162001F0D3FB07464A
:103E7000002F00D1F8BDFF20FCE70000400100202A
:103E8000FEB505460E46002403E0285D6946085548
:103E9000641CB442F9DB32460A49684601F0A4FCCE
:103EA00000F0F0FA0620FFF70DFB02F025F832468D
:103EB0002946182001F078FB0746002F00D1FEBDEF
:103EC000FF20FCE750010020F8B505460E461746D6
:103ED000284614380300FFF724FD06040A10161CB8
:103EE00022283946304600F073F804461EE0394671
:103EF000304600F01DF9044618E039463046FFF719
:103F0000A1FF044612E03946304600F0F3F80446BB
:103F10000CE039463046FFF7B3FF044606E0394669
:103F2000304600F007F8044600E000BF00BF20461E
:103F3000F8BD0000F0B5B5B006460C461E490C7041
:103F4000002503E0705D694648556D1CA542F9DB0C
:103F500022461A49684601F047FC02F00DF800F0CD
:103F600091FA17480078002803D10620FFF7AAFA33
:103F700016E013480078012802D10220FDF7B4FCB6
:103F80000E4828380068012802D10E49087002E066
:103F900000200C49087000200B4908600B4908609C
:103FA00022463146192001F0FFFA0746002F01D1C1
:103FB00035B0F0BDFF20FBE79D0000206801002028
:103FC0009C0000209E000020A4000020A8000020EB
:103FD000F3B581B006463046029901F057FB05461D
:103FE000002D4CD13D4908603D490860486088601B
:103FF000C860086139480079002804D0012803D03E
:1040000002283BD104E000BF0620FFF75BFA35E051
:1040100034480078002802D10620FFF753FA3148CF
:104020000078022813D1FDF75FFC2D48008A80B28A
:104030002B4F0090BF89BBB2294F3F89BAB2284F9E
:10404000BF88B9B2264F3F88B8B201F065FE254857
:104050000078012811D12248008A80B2204F0090B8
:10406000BF89BBB21E4F3F89BAB21D4FBF88B9B2DC
:104070001B4F3F88B8B201F04FFE00BF24E0012083
:104080001649086000F0FEF914480079002804D0B1
:10409000012803D0022816D104E000BF0620FFF754
:1040A00011FA10E00F480078002803D10620FFF72E
:1040B00009FA07E001200C49087000200B4908604C
:1040C0000B49086000BF00BF2946142001F010FA18
:1040D0000446002C00D1FEBDFF20FCE7400100207B
:1040E0000C0100209C0000209E000020A400002065
:1040F000A8000020F8B505460E463146284601F0D6
:10410000CBFA04460948C46000F0BCF90620FFF76A
:10411000D9F901F0F1FE2146172001F07BFA07469C
:10412000002F00D1F8BDFF20FCE700004001002077
:10413000F8B506460F463946304601F0AAFA05465C
:104140002848057100F09EF901F0D6FE002D04D03C
:10415000012D0AD0022D38D10FE022480068012835
:1041600002D10620FFF7AEF930E01E4800680128B2
:1041700002D10620FFF7A6F928E01B4800780028A6
:1041800007D11848006801281ED10620FFF79AF9C8
:104190001AE014480068012802D11449087002E0AE
:1041A0000020124908700020114908601149086078
:1041B000114948618861C861086248620346024645
:1041C0000146009001F0A8FD00E000BF00BF2946B5
:1041D000152001F0BFF90446002C00D1F8BDFF20E6
:1041E000FCE70000400100209C0000209E00002011
:1041F000A4000020A80000200C01002010B50346F8
:104200000C46D8B20A2802D10D20FDF79BFED8B289
:10421000FDF798FE184610BD10B55F480068030012
:10422000FFF77FFB050428496AACB3000421032093
:10423000FEF792FA002805D15748C068401C56493D
:10424000C86016E05448C06846280ED35248C0687B
:10425000C8280AD800205049C8600862086148612F
:104260008861C8610120086003E000204A49C860F5
:1042700008608EE004210320FEF76EFA012805D1C4
:1042800045480069401C4449086113E04248006900
:1042900000280CD0404800691E2808D83E48006914
:1042A0003D498860002008610220086002E000208B
:1042B000394908606DE004210320FEF74DFA00281B
:1042C00005D135484069401C3349486113E0324804
:1042D000406900280CD0304840691E2808D82E4874
:1042E00040692D494860002048610320086002E0D1
:1042F0000020294908604CE02748006A4000264910
:104300000862084680684968884206D92248006ADF
:10431000012108432049086205E01F48006AFE2188
:1043200008401D4908621C488069401C1A49886180
:104330000846806907280FD90846016AC0698200CB
:104340001548243081500020134988610846C0690F
:10435000401CC861002008620F48C069022809D9C2
:104360000D482430007A0007000F0B490863042031
:10437000086002E00120084908600AE000200649C0
:10438000086001200549087003E000200249086028
:1043900000BF00BF10BD0000D00000207900002049
:1043A00010B503480068FEF7AAF90249088010BD5D
:1043B000340000200E00002030B50246002000230B
:1043C00005E01578521C2C18E0B25C1CA3B28B429D
:1043D000F7DB30BD70B5054600F012F80646002444
:1043E00007E060000549085CA84200D103E0601CBA
:1043F000C4B2B442F5DB00BF204670BD4C6600007D
:104400000620704770B518480068FEF775F9054634
:10441000012D25D115480068FEF76EF91449086092
:1044200014480068FEF76BF911498860124800686B
:10443000FEF765F90E49C86010480068FEF75CF9A0
:104440000B490871002408E00D4909680819FEF7B6
:1044500053F9074910310855641C0C2CF4DB01E0BA
:1044600001F0DCFC70BD00001400002018000020EA
:10447000400100201C00002020000020240000201B
:1044800028000020FEB5E2480079002804D0012869
:1044900019D002287DD14FE0DD498968DC4AD26815
:1044A000514308467D21C900FBF796FED949C860F3
:1044B000D7488068C968401AD6490861002008605A
:1044C00048608860A2E1D24DEB7CAA7C697C287CA4
:1044D00001F00BF9CF498862EB7DAA7D697D287DCB
:1044E00001F003F9CB49C862EB7EAA7E697E287E83
:1044F00001F0FBF8C7490863086BFCF7E3FD0546CC
:10450000C449C86AFCF7DEFD0646C249886AFCF762
:10451000D9FD07462A46314600F0F6F9BE48006844
:10452000BC490860BD4800684860BD4800688860B4
:104530000020C860086169E1B54A2832D1799079D4
:1045400001F0CAF8B74908700846007800285BD126
:10455000AF4D2835EB7AAA7A697A287A01F0C5F846
:10456000AC498862EB7BAA7B697B287B01F0BDF8B4
:10457000A849C862EB7CAA7C697C287C01F0B5F86C
:10458000A4490863086BFCF79DFD0546A149C86A6C
:1045900000E03AE1FCF796FD06469E49886AFCF782
:1045A00091FD07462A46314600F0AEF99A48006868
:1045B0009849086099480068486099480068886090
:1045C000934D2835EB7DAA7D697D287D01F08DF81E
:1045D00095490860EB7EAA7E697E287E01F085F809
:1045E000914948600968904A5268514308467D21C4
:1045F000C900FBF7FBFD8749C8608B480068C968A4
:10460000401A84490861FFE000208249C8600861BF
:1046100008604860886048618861C86108624862D3
:10462000814948737A4D2835EB7DAA7D697D287DC7
:1046300001F05BF87C490860EB7EAA7E697E287EEB
:1046400001F053F8784948602A46D178907801F013
:1046500043F88C21081A7449886074490978881EC7
:104660001A21FBF7C3FD704908730024AEE01A2538
:1046700065430B35664E2836735D1A2565430A354A
:10468000725D1A2565430935715D1A256543083544
:10469000705D01F02AF85F4988621A2565430F357D
:1046A000735D1A2565430E35725D1A2565430D3518
:1046B000715D1A2565430C35705D01F016F855499A
:1046C000C8621A2565431335735D1A256543123593
:1046D000725D1A2565431135715D1A2565431035E4
:1046E000705D01F002F84B4908631A2565431735E0
:1046F000735D1A2565431635725D1A2565431535B8
:10470000715D1A2565431435705D00F0EEFF464972
:1047100008601A2565431B35735D1A2565431A35F4
:10472000725D1A2565431935715D1A256543183583
:10473000705D00F0DAFF3C4948603649086BFCF7D1
:10474000C1FC05463349C86AFCF7BCFC0646314942
:10475000886AFCF7B7FC07462A46314600F0D4F8D1
:104760002D480268142060432F4910310A502B480D
:1047700002681420604340184260294802681420EF
:1047800060434018826010390968274A52685143D3
:1047900008467D21C900FBF729FD14216143224A07
:1047A00010328918C86020480268142060431E49EE
:1047B00010314018C068121A14206043401802617A
:1047C0001448008D69460855601CC4B21648007B29
:1047D000A04200DD4BE700240DE06846015D6A461B
:1047E000601C105C814204D00F48407B401C0E4985
:1047F0004873601CC4B20C48007B401EA042ECDC35
:1048000000200449C860086100E000BF00BFFEBD91
:10481000400100200C0100209000002094000020A6
:10482000980000209C0000200C0300209D00002028
:10483000F0B504468C4201D9204600E00846054602
:104840009A4201D9104600E018460646B54201DDFD
:10485000284600E0304607460598874201D9384689
:10486000F0BD0598FCE710B500242146022001F0B8
:10487000B5FD10BD0448006804490968884201D0AC
:10488000012070470020FCE7AC000020B0000020B1
:1048900010B50B480068FDF72FFF0A490870002487
:1048A00008E06100084A12688818FDF725FF0749EB
:1048B0000855641C034800788442F2DB10BD0000F8
:1048C0002C0000209D000020300000206801002006
:1048D00010B500240B480078002808D1002120469C
:1048E00001F0E2FBC4B201200649087004E0012196
:1048F000204601F0D9FBC4B22146002001F06EFD34
:1049000010BD0000BA000020F7B58CB014465E4917
:104910000D98FCF7BDFA0D905B492046FCF7B8FAFC
:1049200004460C98FCF78AFA0022584B019100903B
:10493000FBF7ECFE03910290FBF7FEFC0A90544952
:104940000C98FCF7A5FA0390FCF752FB089006219F
:104950000898FBF74BFC0D460898FCF7ABFB03905F
:104960000A9901F0FBFD09907F20C0050D9901F027
:1049700001FE2146039001F099FD06460D99099824
:1049800001F094FD7F21C905029001F0E7FD214669
:10499000039001F08BFD07467F20C005099901F0C7
:1049A000E9FD01900D9901F081FD7F21C90502907B
:1049B00001F0D4FD2146039001F078FD0490002021
:1049C000059006900790002D04D107940498069056
:1049D00005961EE0012D03D107970694059618E071
:1049E000022D04D1079606940498059011E0032D3A
:1049F00003D10796069705940BE0042D04D1049883
:104A000007900696059404E0052D02D107940696BA
:104A100005970798FCF712FA00221E4B01910090AF
:104A2000FCF7E8F803910290FBF786FC07900698E4
:104A3000FCF704FA0022174B01910090FCF7DAF81A
:104A400003910290FBF778FC06900598FCF7F6F9C5
:104A50000022104B01910090FCF7CCF803910290DA
:104A6000FBF76AFC05900798FCF7E8FA0A4908602A
:104A70000698FCF7E3FA094908600598FCF7DEFAA6
:104A8000074908600FB0F0BD00007A4400004E40B6
:104A90000000704200408F409000002094000020F1
:104AA0009800002038B507210220FDF755FE0028A8
:104AB00037D13220FFF7A8F907210220FDF74CFE7D
:104AC00000282ED10CE03220FFF79EF9FB48007839
:104AD000401CFA49087008460078312800DD05E0DE
:104AE00007210220FDF738FE0028ECD000BFF34874
:104AF0000078322812D10020F049087001F08EF9B8
:104B0000FA210120FFF726F8002000F0D3FD002055
:104B1000EB4908800120EB49087002E00020E749DA
:104B2000087004210120FDF717FE002832D164200F
:104B3000FFF76AF904210120FDF70EFE002829D1B4
:104B4000E1480068002817D10120DF490860FFF71D
:104B500099FCDE48008A80B2DC4C0090A489A3B2A4
:104B6000DA4C2489A2B2D94CA488A1B2D74C2488AB
:104B7000A0B201F0D1F808E00020D3490860034654
:104B800002460146009001F0C7F8CF480178142092
:104B900000F0AEFC02210020FDF7DEFD002839D137
:104BA0006420FFF731F902210020FDF7D5FD002830
:104BB00030D1C548006801282CD1C34800790028AD
:104BC00028D1C1488068C830BF49886008468068DD
:104BD0007D21C900884202DD0846BB498860FFF795
:104BE00051FCBA48008A80B2B84C0090A489A3B2A4
:104BF000B64C2489A2B2B54CA488A1B2B34C248887
:104C0000A0B201F089F8B0488168162000F002FDDA
:104C100001F072F905210120FDF79EFD002836D133
:104C20006420FFF7F1F805210120FDF795FD00282C
:104C30002DD1A5480068012829D1A3480079002872
:104C400025D1A1488068C8389F4988600846806897
:104C5000642801DA64208860FFF714FC9B48008A0E
:104C600080B29A4C0090A489A3B2984C2489A2B235
:104C7000964CA488A1B2954C2488A0B201F04CF8BF
:104C800091488168162000F0C5FC01F035F9032138
:104C90000220FDF761FD002856D16420FFF7B4F82B
:104CA00003210220FDF758FD00284DD186480068F9
:104CB000012849D184480079002845D184480078EA
:104CC000401C83490870052181480078FBF78EFA63
:104CD0000B00FEF726FE051604090D121C007D20B0
:104CE000C0007949C86013E07A487749C8600FE08E
:104CF000FF20F5307449C8600AE0FA207249C860A4
:104D000006E000207049C8607149087000E000BFEB
:104D100000BFFFF7B7FB6D48008A80B26B4C009074
:104D2000A489A3B2694C2489A2B2684CA488A1B218
:104D3000664C2488A0B200F0EFFF6348C1681720DA
:104D400000F068FC01F0D8F801210020FDF704FD17
:104D5000002870D16E20FFF757F801210020FDF7E1
:104D6000FBFC0028F5D1584800680128F1D15A48C9
:104D70000078401C58490870052157480078FBF717
:104D800035FA0B00FEF7CDFD0560041E3B586B00A5
:104D900001204D4908710020087400214A484174DF
:104DA0008174C1740175032141750E21817508213B
:104DB000C17500210176032141760E2181760821FB
:104DC000C17650E00120404908710020087400219C
:104DD0003D484174072181740821C1740021017587
:104DE000032141750E2181750821C17500210176CD
:104DF000032141760E2181760821C17633E001201E
:104E0000314908710020087400212F4841740F2196
:104E100081740021C1740175032141750E218175D2
:104E20000821C17500210176032141760E2181768A
:104E30000821C17617E066E00020234908717D2033
:104E4000C000C86088600EE000201F490871C8607B
:104E50007D20C000886000201F49087003E000200A
:104E60001D49087000BF00BFFFF70CFB1748008A00
:104E700080B2164C0090A489A3B2144C2489A2B22B
:104E8000124CA488A1B2114C2488A0B200F044FFB7
:104E900001F032F80C48007900281FD10A48017946
:104EA000152000F057FB08488168162000F0B2FB7F
:104EB0000548C168172000F0ADFB24E03800002051
:104EC0000E00002010000020400100200C010020F6
:104ED0000D000020EE0200000C0000200A480079BE
:104EE000012810D108480179152000F033FB0C226D
:104EF00005491C31881A00F00AFC0C2202491C31B9
:104F0000182000F051FB38BD40010020F0B591B0F1
:104F1000002500260027002010900F9001200E9001
:104F20000D900C900B900A90FB48C068FA49096AF2
:104F3000884217D1F8480069F749496A884211D177
:104F4000F5480068F449496988420BD1F248406845
:104F5000F1498969884205D1EF488068EE49C969FD
:104F600088427DD0EC480068EB494969451AEA4817
:104F70004068E9498969461AE7488068E649C9698D
:104F8000471AE548C068E449096A401A1090E248A7
:104F90000069E149496A401A0F900F98FCF704F93B
:104FA00009901098FCF700F908903846FCF7FCF8D7
:104FB00007903046FCF7F8F806902846FCF7F4F81E
:104FC00005900998009005A80FC8FFF731FC04462A
:104FD000D248007800287CD12046FBF700FE0791DC
:104FE00006902846FCF7E0F80190FBF7F8FD002258
:104FF000CB4B03910290FBF789FB05910490079B33
:10500000069AFBF783FB09910890FBF795F9C549D0
:1050100008602046FBF7E3FD079106903046FCF759
:10502000C3F80190FBF7DBFD0022BD4B039102901A
:10503000FBF76CFB05910490079B069AFBF766FB58
:1050400009910890FBF778F9B74908602046FBF70B
:10505000C6FD079106903846FCF7A6F8019000E0DF
:10506000C6E1FBF7BCFD0022AD4B03910290FBF7BC
:105070004DFB05910490079B069AFBF747FB0991AE
:105080000890FBF759F9A94908602046FBF7A7FDEE
:10509000079106901098FCF787F80190FBF79FFDA9
:1050A00000229F4B03910290FBF730FB0591049087
:1050B000079B069AFBF72AFB09910890FBF73CF93E
:1050C0009B4908602046FBF78AFD079106900F98E0
:1050D00000E019E0FCF768F80190FBF780FD002282
:1050E0008F4B03910290FBF711FB05910490079BF6
:1050F000069AFBF70BFB09910890FBF71DF98D4908
:1051000008600120854908702846FCF74DF8A04248
:1051100002D101200E9017E02046FBF7CBFF06904E
:1051200080480168069801F0C1F908902846FCF70C
:105130003BF80690FBF7BEFF0790089901F01AFABA
:105140000990FBF77BFF0E903046FCF72DF8A0424C
:1051500002D101200D9017E02046FBF7ABFF06902F
:1051600071480168069801F0A1F908903046FCF7F3
:105170001BF80690FBF79EFF0790089901F0FAF9DB
:105180000990FBF75BFF0D903846FCF70DF8A04245
:1051900002D101200C9017E02046FBF78BFF069010
:1051A00062480168069801F081F908903846FBF7DB
:1051B000FBFF0690FBF77EFF0790089901F0DAF9F4
:1051C0000990FBF73BFF0C901098FBF7EDFFA04216
:1051D00002D101200B9017E02046FBF76BFF0690F1
:1051E00053480168069801F061F908901098FBF7A0
:1051F000DBFF0690FBF75EFF0790089901F0BAF914
:105200000990FBF71BFF0B900F98FBF7CDFFA04217
:1052100002D101200A9017E02046FBF74BFF0690D1
:1052200044480168069801F041F908900F98FBF78F
:10523000BBFF0690FBF73EFF0790089901F09AF933
:105240000990FBF7FBFE0A90002D1AD02846FBF7C9
:10525000ABFF0E99884205D22F48406940192E496C
:1052600048610EE0002D06DA2B4841690E98081AB5
:105270002949486105E0284841690E9808182649DF
:105280004861002E1AD03046FBF78EFF0D998842F8
:1052900005D22148806980191F4988610EE0002EDF
:1052A00006DA1D4881690D98081A1B49886105E0D6
:1052B000194881690D98081817498861002F1AD07C
:1052C0003846FBF771FF0C99884205D21248C06935
:1052D000C0191149C8610EE0002F06DA0E48C169F5
:1052E0000C98081A0C49C86105E00B48C1690C9874
:1052F00008180949C861109800282DD01098FBF7AC
:1053000053FF0B99884217D20348016A1098081876
:105310000149086220E000000C0100206800002024
:105320000000F03F7C00002080000020840000206E
:10533000880000208C0000201098002806DA3E48E3
:10534000016A0B98081A3C49086205E03A48016A6C
:105350000B980818384908620F9800281CD00F983D
:10536000FBF722FF0A99884206D23348416A0F9818
:105370000818314948620FE00F98002806DA2E48D5
:10538000416A0A98081A2C49486205E02A48416A8D
:105390000A9808182849486228480068002807D158
:1053A00026480079022803D125480078022841D0F8
:1053B00022480079022807D120480079022839D1F3
:1053C0001F480078012835D01B48808C80B200909F
:1053D0001948008C83B21848808B82B21648008B23
:1053E00081B21548808A80B2099000F095FC21E0D6
:1053F00012480079022807D110480079022819D1F3
:105400000F480078022815D00B48008A80B200901F
:105410000948808983B20848008982B2064880889A
:1054200081B20548008880B2099000F075FC022026
:10543000FCF75AFA11B0F0BD0C0100204001002029
:105440009C00002008B5FCF775FA01211C20FCF730
:10545000D9FB01210820FCF7D5FB00212048FCF7EF
:10546000F7FEFEF7CFFFFFF713FAFEF799FF00F004
:105470008DFA0020034602460146009000F04CFCE5
:10548000FFF700F81748008A80B2164C0090A489F4
:10549000A3B2144C2489A2B2124CA488A1B2114C1C
:1054A0002488A0B200F038FCFDF72CF900F004FECF
:1054B00000F00AFE0CA0FAF781FE00F0E7FE502093
:1054C000FDF7C6FF0A210020FEF744FB07E000F0CD
:1054D000F5FE00F025FBFDF795FDFFF7E3FAF6E793
:1054E000C92000000C01002073746172740D0A0061
:1054F00070B504460D46002615480078012800D1F5
:1055000070BD2146304600F0CFFD064601213046F1
:1055100000F0CAFD06460021304600F0C5FD0646F3
:105520000121304600F0C0FD0646002D05D10021C6
:10553000304600F0B9FD064604E00121304600F097
:10554000B3FD06463146072000F048FF0120D7E7AB
:10555000B400002070B504460E46002511480078BE
:10556000012800D170BD2146284600F09DFD05466A
:105570000421284600F098FD05460021284600F049
:1055800093FD05460121284600F08EFD0546314673
:10559000284600F089FD05462946072000F01EFF39
:1055A0000120DFE7B4000020F7B5064614460027C7
:1055B00017480078012800D1FEBD3146384600F07A
:1055C00073FD07460321384600F06EFD0746254669
:1055D000E017000E40190004010E384600F064FD8B
:1055E0000746E017000E401900120002201AC1B24F
:1055F000384600F059FD074622463846019900F02A
:1056000041FD07463946072000F0E8FE0120D3E7B8
:10561000B400002070B505460C4600261A480078F4
:10562000012800D170BD2946304600F03DFD0646F8
:105630000221304600F038FD06460021304600F0D9
:1056400033FD06460421304600F02EFD0646210EAD
:10565000304600F029FD06462002010E304600F0DB
:1056600023FD06462004010E304600F01DFD0646CF
:10567000E1B2304600F018FD06463146072000F042
:10568000ADFE0120CEE70000B400002002461078F5
:10569000704702461078704710B503460C4618460E
:1056A000FEF7DEFA10BD00000148007870470000E8
:1056B000B700002070B50446002500200549087099
:1056C0002146284600F0F0FCC5B22946052000F02E
:1056D00085FE70BDB6000020024600201007000FB6
:1056E00000010B071B0F1843704730B5044600201C
:1056F0002007000F00010D072D0F2843000115079B
:105700002D0F284300011D072D0F284330BD30B554
:10571000044600203FE0255C2B00FEF702F910094B
:105720000C0F1215181B1E2124272A2D3033363951
:1057300030230B542DE031230B542AE032230B5439
:1057400027E033230B5424E034230B5421E035238A
:105750000B541EE036230B541BE037230B5418E088
:1057600038230B5415E039230B5412E061230B54FA
:105770000FE062230B540CE063230B5409E0642315
:105780000B5406E065230B5403E066230B5400E042
:1057900000BF00BF401C9042BDDB30BDF0B50546E8
:1057A0000E4613462A463446002D01D0002E01D164
:1057B0000020F0BDA24202D9E018904208D2002198
:1057C00003E0605C5054481C81B29942F9DB09E067
:1057D000194605E0481E205C4F1ED055481E81B278
:1057E0000029F7DC2846E4E730B50446002051E004
:1057F000235C382B33D009DC1D46303D2B00FEF7EF
:1058000090F80816191C1F2225282B46632B32D02E
:1058100006DC392B26D0612B27D0622B37D127E02D
:10582000642B2BD0652B2CD0662B30D12CE00023A1
:105830000B542DE001230B542AE002230B5427E0E4
:1058400003230B5424E004230B5421E005230B54C1
:105850001EE006230B541BE007230B5418E008231B
:105860000B5415E009230B5412E00A230B540FE0EC
:105870000B230B540CE00C230B5409E00D230B54A9
:1058800006E00E230B5403E00F230B5400E000BF8F
:1058900000BF401C9042ABDB30BD01460022002916
:1058A00000D17047002200E0521C0B78491C002BED
:1058B000FAD11046F5E7000070B5002425A0FFF7E7
:1058C000ECFF85B22A4623A1204600F0DBFBC4B2E0
:1058D00022A0FFF7E2FF85B22A4620A1204600F071
:1058E000D1FBC4B222A0FFF7D8FF85B22A4620A17F
:1058F000204600F0C7FBC4B21FA0FFF7CEFF85B261
:105900002A461DA1204600F0BDFBC4B21CA0FFF733
:10591000C4FF85B22A461AA1204600F0B3FBC4B2E8
:1059200016A0FFF7BAFF85B22A4614A1204600F060
:10593000A9FBC4B214A0FFF7B0FF85B22A4612A19A
:10594000204600F09FFBC4B22146012000F046FD36
:1059500070BD00007B2270223A2200006E34706D10
:1059600038696D6A376F33743370747800000000E3
:10597000222C2276223A2200312E302E30000000D6
:10598000222C226D223A00007D0000001FB5002469
:1059900001210E20FCF736F900BF5D48C0682021C8
:1059A00088435B49C8605B484069C008C000801CF0
:1059B0005849486156480068202188435449086086
:1059C00000BF00BF0846C068102188435049C86026
:1059D00050480069C008C000001D4E4908614C488D
:1059E0000068102188434A4908604B4840680121FB
:1059F000490388434849486000BF00BF4448C06825
:105A0000402188434249C86042488069C008C000BC
:105A1000001D404988613E480068402188433C4958
:105A2000086000BF00BF3A488038C068082188433A
:105A300037498039C86037488038C068C008C0001E
:105A4000401C34498039C8603148803800680821DA
:105A500088432F498039086000BF00BF2C48403080
:105A6000C068402188432A494031C86029484030F5
:105A70008069C008C000001D264940318861244863
:105A8000403000684021884321494031086000BF10
:105A90000021684601724172032181721F48039000
:105AA000012168460170002141708170C17001714F
:105AB0000121417102A8FDF74DFA002800D0012410
:105AC00069460020FDF774F8002800D001246946DB
:105AD0000120FDF76DF8002800D00124694602205E
